:0200000280007C
:1000000000E4072005260800012608000126080054
:100010000126080001260800012608000000000053
:10002000000000000000000000000000A105080022
:1000300001260800000000004106080089060800AB
:1000400001260800012608000126080001260800F4
:1000500001260800012608000126080001260800E4
:10006000012608000126080000000000A92408005D
:10007000BD240800D1240800E52408000000000089
:1000800000000000012608000126080001260800E3
:1000900001260800012608000126080001260800A4
:1000A00001260800000000000126080001260800C3
:1000B0000126080001260800012608000126080084
:1000C0000126080001260800012608000126080074
:1000D0000126080001260800012608000126080064
:1000E0000126080001260800012608000126080054
:1000F0000126080010B5054C237833B9044B13B121
:100100000448AFF300800123237010BD7409072059
:1001100000000000403B08000C4B43B10C4810B5F8
:100120000C49AFF300800C48036823B910BD0A489E
:10013000036833B97047094B002BF7D0BDE8104076
:100140001847064B002BF5D0184700BF00000000F1
:10015000403B080078090720403B080000000000F1
:100160002DE9F04180B90C469046002A0FDD8F182A
:10017000084E094D306821462B6898470134BC422F
:10018000F8D14046BDE8F0814FF0FF38F9E78046EE
:10019000F7E700BF90C3072088C307200138022873
:1001A00015D82DE9F0410E4614469AB10D46DFF8F8
:1001B00038800C4FD8F8000015F8011B3B689847B1
:1001C00000280ADBA81B013CF4D1BDE8F0814FF008
:1001D000FF3070471046BDE8F0814FF0FF30BDE8BA
:1001E000F08100BF8CC3072090C30720436913F040
:1001F000020F1DBFC1F30801C1610020012070473B
:10020000436913F0010F05D08369C3F308030B6042
:100210000020704701207047F0B583B004460D46BA
:1002200000230193204B98420DD0204B984212D0CE
:100230001F4B984219D01F4B9C4220D01E4B9C4212
:1002400027D003B0F0BD1F461C4E29463846B047A4
:100250000028FAD1EFE71F46194E01A93846B047EA
:100260000028FAD1019B2B70E8E71E46144C01A927
:100270003046A0470028FAD1019B2B70E1E71E46CB
:100280000F4C01A93046A0470028FAD1019B2B70E2
:10029000D7E71E460A4C01A93046A0470028FAD1EC
:1002A000019B2B70CDE700BF00080E400080094085
:1002B00000C0094000000A4000400A4073040800E2
:1002C0000102080070B50C461E4B98420DD01E4B23
:1002D000984213D01D4B984219D01D4B98421FD005
:1002E0001C4B984225D0002070BD1E461A4D214659
:1002F0003046A8470028FAD1012070BD1E46174D90
:1003000021463046A8470028FAD1012070BD1E467C
:10031000124D21463046A8470028FAD1012070BD71
:100320001E460E4D21463046A8470028FAD101202E
:1003300070BD1E46094D21463046A8470028FAD117
:10034000012070BD00080E400080094000C0094037
:1003500000000A4000400A4063040800ED01080064
:1003600010B5044601210A4B18680A4B98472378B8
:1003700033B12046084AD36110F8013F002BFAD16F
:1003800000231A46194602480068044CA04710BDD5
:1003900094C307201D0F080000080E40D10A080072
:1003A00030B585B00120144B9847144B1860144C9D
:1003B000144B1C60144A154B1A60154A154B1A60F1
:1003C000154B01934FF4E13302934FF40063039311
:1003D0000820124B984701A92046114B9847114D10
:1003E0002B6800219868104CA0472B6800215868A2
:1003F000A04705B030BD00BF850C080094C307209E
:1004000000080E4090C30720C50208008CC30720D7
:100410001902080088C3072000BD0105E125080076
:100420002D04080034010720D52A080010B4AC239D
:1004300003600B684A68B3FBF2F31B095C1E4FF6BE
:10044000FE7294420BD803628B68436040F2022331
:10045000C0F8203150230360002010BC70470120F9
:10046000FBE7436913F0020F1ABFC16100200120AE
:100470007047436913F0010F1DBF83690B700020A3
:100480000120704700F1080343604FF0FF328260A3
:10049000C36003610023036070470023036170475A
:1004A00043684B609A688A609A68516099600861F5
:1004B000036801330360704730B40D68B5F1FF3F46
:1004C00002D000F1080202E0026904E01A46536813
:1004D0001C68A542FAD253684B6099608A605160EB
:1004E000086103680133036030BC704703694268E8
:1004F000816891608268416851605A68904204BF87
:1005000082685A60002202611A68013A1A6018680B
:100510007047000082B0002301930D4B1B68B3F1BC
:10052000FF3F08D04FF0400383F31188BFF36F8F74
:10053000BFF34F8FFEE74FF0400383F31188BFF303
:100540006F8FBFF34F8F019B002BFCD002B0704721
:100550002C01072006480068006880F3088862B60E
:1005600061B6BFF34F8FBFF36F8F00DF00BF000096
:1005700008ED00E04FF0807340F8043C21F00101E9
:1005800040F8081C034B40F80C3C40F8202C403845
:10059000704700BF150508000000000000000000C3
:1005A000074B19680868B0E8F00F80F30988BFF3BB
:1005B0006F8F4FF0000080F311884EF00D0E7047E2
:1005C000A0C10720704700BF4FF0400383F311889C
:1005D000BFF36F8FBFF34F8F0A4A13680133136065
:1005E000012B0DD1084B1B6813F0FF0F08D04FF003
:1005F000400383F31188BFF36F8FBFF34F8FFEE784
:10060000704700BF2C01072004ED00E0094B1B6878
:1006100043B94FF0400383F31188BFF36F8FBFF3EB
:100620004F8FFEE7013B034A13600BB983F3118838
:10063000704700BF2C0107200000000000000000F0
:10064000EFF30980BFF36F8F0D4B1A6820E9F00FAD
:1006500010602DE908404FF0400080F3118801F050
:1006600005F94FF0000080F31188BDE808401968D3
:100670000868B0E8F00F80F30988BFF36F8F704708
:10068000A0C10720704700BF08B54FF0400383F3B7
:100690001188BFF36F8FBFF34F8F054B984718B189
:1006A0004FF08052034B1A60002383F3118808BD7A
:1006B0007915080004ED00E0054B00221A60054999
:1006C0000A600549054A116007221A60704700BF99
:1006D00010E000E018E000E01F48010014E000E036
:1006E00010B582B0294B1A78D2B20192FF221A704B
:1006F0001B78DBB28DF803309DF8033003F0400324
:10070000234A13700722234B1A609DF8033013F01D
:10071000800F12D0062300E00B469DF80320520004
:10072000D2B28DF803209DF80320591E12F0800FDD
:10073000F2D1184A1360032B08D04FF0400383F323
:100740001188BFF36F8FBFF34F8FFEE71B0203F4D7
:10075000E063104A1360019BDBB20C4A13700E4B2E
:100760001A6842F4E0021A601A6842F0E0421A6025
:100770000A4B984700240A4B1C600A4B98470A4BC7
:1007800098470A4B9847204602B010BD00E400E0AD
:10079000900907209409072020ED00E0B906080021
:1007A0002C010720550508006D18080015050800E4
:1007B000EFF305830F2B0FD9104A9B5CDBB2104A75
:1007C00012789A4208D94FF0400383F31188BFF39F
:1007D0006F8FBFF34F8FFEE70A4B1B6803F4E06394
:1007E000094A1268934208D94FF0400383F31188F5
:1007F000BFF36F8FBFF34F8FFEE77047F0E300E06A
:10080000900907200CED00E09409072038B5044654
:1008100010F0070F1CBF20F007040834104B984756
:10082000104B1B688BB1104B1B681C444BF2F772CA
:10083000944210D8A34210D20A4A15681D440A4BAC
:100840001C600A4B9847284638BD094B23F0070324
:10085000044A1360E7E70025F3E70025F1E700BF4E
:100860005D150800980907209CC10720AD160800F7
:10087000A409072040B14FF0400383F31188BFF370
:100880006F8FBFF34F8FFEE77047000010B504462F
:10089000044B9847A46B044B9847B4FA84F0400982
:1008A00010BD00BFC90508000D06080070B504465C
:1008B0001646856B026C52B90368002B2AD140683A
:1008C000184B9847002363600135A56370BD6EB96E
:1008D0008068154B9847A368226C1344A360626834
:1008E000934219D32368A3600020EDE7C0680E4B44
:1008F0009847236C5B42E2681A44E26021688A42AE
:1009000002D262681344E360022E07D145B1013D73
:100910000020D9E70020D7E70020D5E70020D3E763
:100920000020D1E79D1B08004D290800026C72B120
:1009300010B50346C4681444C4604068844224BFB0
:100940001868D8600846D968014B984710BD7047B1
:100950004D2908002DE9F0410546204B984795F8B0
:10096000454064B2002C12DD6B6A83B105F12407A7
:100970001B4EDFF8748004E0013C64B23CB16B6A4A
:100980002BB13846B0470028F6D0C047F4E7FF2324
:1009900085F84530134B9847104B984795F84440DD
:1009A00064B2002C12DD2B6983B105F110070C4EE7
:1009B000DFF8348004E0013C64B23CB12B692BB118
:1009C0003846B0470028F6D0C047F4E7FF2385F843
:1009D0004430044B9847BDE8F08100BFC9050800CA
:1009E0007D1908000D060800B11A080038B530B3AB
:1009F00004460D461C4B98472268216CE36B03FBB1
:100A000001F3D01860600020A063A2605B1A134459
:100A1000E360FF2384F8443084F84530C5B9236986
:100A2000EBB104F11000114B9847C0B14FF0805268
:100A30000F4B1A60BFF34F8FBFF36F8F0FE04FF074
:100A4000400383F31188BFF36F8FBFF34F8FFEE72F
:100A500004F11000074DA84704F12400A847064BF5
:100A60009847012038BD00BFC90508007D1908005E
:100A700004ED00E0850408000D060800F8B540B953
:100A80004FF0400383F31188BFF36F8FBFF34F8F95
:100A9000FEE7064617460D4601FB00F050300A4BB4
:100AA0009847044668B11DB100F15003036000E0AF
:100AB0002060E663256401212046044B984784F8B2
:100AC0004C702046F8BD00BF0D080800ED09080075
:100AD0002DE9F04F85B0019298B10446D1B1022BB7
:100AE00024D01E460F465B4B984758BB019B8BB3E7
:100AF0004FF0400383F31188BFF36F8FBFF34F8F25
:100B0000FEE74FF0400383F31188BFF36F8FBFF30D
:100B10004F8FFEE7026C002AE1D04FF0400383F3D1
:100B20001188BFF36F8FBFF34F8FFEE7E26B012A8F
:100B3000D7D04FF0400383F31188BFF36F8FBFF31B
:100B40004F8FFEE70025DFF83481DFF834A1DFF8AE
:100B5000109130E00025F6E73246394620463E4BFC
:100B60009847636A93B104F124003C4B984738B12D
:100B70004FF080523A4B1A60BFF34F8FBFF36F8F25
:100B8000384B9847012005B0BDE8F08F0028F7D01A
:100B90004FF08052324B1A60BFF34F8FBFF36F8F0D
:100BA000EEE7304B98470020EDE720462E4B984764
:100BB0002E4B98470125C047A26BE36B9A42CBD3DB
:100BC000022EC9D0019B002BEBD00DB902A8D04753
:100BD000244B9847264B9847C04794F844305BB263
:100BE000B3F1FF3F04BF002384F8443094F845304C
:100BF0005BB2B3F1FF3F04BF002384F84530194BCB
:100C0000984701A902A81B4B9847E0B9C047D4F800
:100C100038B0E56B134B9847AB45C6D1019904F149
:100C20001000154B984720460F4B98470F4B98479D
:100C30000028BFD14FF08053C9F80030BFF34F8F69
:100C4000BFF36F8FB6E72046074B9847074B98478F
:100C5000002098E7BD1A0800AD0808007D190800BB
:100C600004ED00E00D06080055090800AD16080067
:100C70005D150800251A080001190800C9050800BB
:100C80000D1A080038B5024600210120064B98478E
:100C9000044638B1002141600160C1600B460A463C
:100CA000024DA847204638BD7D0A0800D10A080039
:100CB0002DE9F843002837D0044600293DD0022B07
:100CC00047D01F46904689462F4B9847EFF3118631
:100CD0004FF0400383F31188BFF36F8FBFF34F8F43
:100CE000A26BE36B9A4201D3022F44D194F8455092
:100CF0006DB23A4649462046244B9847B5F1FF3F2E
:100D000033D1636A002B38D004F12400204B98477C
:100D1000002834D0B8F1000F33D00120C8F800000B
:100D200086F31188BDE8F8834FF0400383F3118800
:100D3000BFF36F8FBFF34F8FFEE7006C0028BED06C
:100D40004FF0400383F31188BFF36F8FBFF34F8FD2
:100D5000FEE7E06B0128B4D04FF0400383F3118825
:100D6000BFF36F8FBFF34F8FFEE76B1C5BB284F84E
:100D700045300120D4E70020D2E70120D0E7012050
:100D8000CEE70120CCE700BFB1070800AD0808009E
:100D90007D1908002DE9F04784B0019280B1044626
:100DA000B9B10E46504B9847F8B9019B2BB34FF0A1
:100DB000400383F31188BFF36F8FBFF34F8FFEE7BC
:100DC0004FF0400383F31188BFF36F8FBFF34F8F52
:100DD000FEE7036C002BE4D04FF0400383F311884F
:100DE000BFF36F8FBFF34F8FFEE70027DFF824813B
:100DF000DFF824A1DFF8FC9029E00027F6E7314670
:100E000020463A4B9847013DA563236963B104F13D
:100E10001000374B984738B14FF08052354B1A606D
:100E2000BFF34F8FBFF36F8F334B9847012004B050
:100E3000BDE8F087304B98470020F8E702A8D0477C
:100E40000EE020462D4B98472D4B98470127C04771
:100E5000A56B002DD3D1019B002BEBD0002FEDD043
:100E6000254B9847274B9847C04794F844305BB2CE
:100E7000B3F1FF3F04BF002384F8443094F84530B9
:100E80005BB2B3F1FF3F04BF002384F845301A4B37
:100E9000984701A902A81C4B9847C8B920461B4B8C
:100EA00098470028CDD0019904F12400184B9847A9
:100EB0002046124B9847124B98470028C6D14FF056
:100EC0008053C9F80030BFF34F8FBFF36F8FBDE77A
:100ED00020460A4B98470A4B984720460B4B9847A9
:100EE0000028B3D00020A2E7BD1A08002D09080091
:100EF0007D19080004ED00E00D0608005509080002
:100F0000AD1608005D150800251A08008D080800B8
:100F100001190800C90508000D1A08002DE9F04361
:100F200085B0019158B10446036C8BB14FF040037A
:100F300083F31188BFF36F8FBFF34F8FFEE74FF03E
:100F4000400383F31188BFF36F8FBFF34F8FFEE72A
:100F50005B4B984750B9019B83B14FF0400383F33B
:100F60001188BFF36F8FBFF34F8FFEE700252F4629
:100F7000544EDFF88491DFF8588148E000252F4671
:100F8000F6E7013BA363236813B94F4B98476060B2
:100F9000236963B104F110004C4B984738B14FF00E
:100FA00080524B4B1A60BFF34F8FBFF36F8F494B8B
:100FB00098470125284605B0BDE8F08345B14FF0BC
:100FC000400383F31188BFF36F8FBFF34F8FFEE7AA
:100FD000404B9847EEE702A8C84721E0B047606859
:100FE0003D4B984705463B4B984740E020463B4BDE
:100FF00098473B4B984709E02046384B9847384B79
:1010000098472046374B9847002845D10127B047DD
:10101000A36B002BB5D1019B002BCFD0002FDAD0D2
:101020002C4B9847304B9847B04794F844305BB20C
:10103000B3F1FF3F04BF002384F8443094F84530F7
:101040005BB2B3F1FF3F04BF002384F84530214B6E
:10105000984701A902A8254B98470028CCD12046E3
:10106000204B98470028C1D02368002BB6D00199A7
:1010700004F124001E4B98472046184B9847184B04
:1010800098470028C2D14FF08053C8F80030BFF312
:101090004F8FBFF36F8FB9E7002D8BD0094B984767
:1010A000636A53B1236B1968C1F105016068114B84
:1010B0009847084B984700257CE70021F6E700BFDA
:1010C000BD1A0800C9050800211D08007D19080087
:1010D00004ED00E00D060800DD1A080055090800BF
:1010E000AD1608008D0808005D150800251A0800D7
:1010F00001190800591C08000D1A080010B40A4B09
:101100001B684BB10123084C54F833202AB101333A
:10111000082BF9D110BC70470023034A42F8331062
:1011200002EBC3035860F5E798C3072070B5044687
:101130000D461646114B984794F844305BB2B3F114
:10114000FF3F04BF002384F8443094F845305BB27D
:10115000B3F1FF3F04BF002384F84530084B9847A4
:10116000A36B1BB12046074B984770BD32462946FA
:1011700004F12400044B9847F4E700BFC9050800B8
:101180000D0608005509080039190800084B1B68AE
:101190001B683BB1064B1B68DB68DB685A68054B74
:1011A0001A6070474FF0FF32024B1A60704700BF61
:1011B000A4C1072054C2072080B5164DDFF86C800B
:1011C000154FDFF86C902B68BBB1144EC047FB681D
:1011D000DC68201DB047124A1368013B13602B687E
:1011E000013B2B600F4B9847206BDFF848A0D0479E
:1011F0002046D0472B68002BE8D10B4B1B68012BF6
:10120000E1D94FF08053C9F80030BFF34F8FBFF3DF
:101210006F8FD8E714C2072088C20720ED040800AA
:1012200010C207200D060800ACC10720C905080040
:1012300004ED00E07508080070B504460E461D4B2D
:101240001D681D4B186804301C4B984748B91A4B51
:101250001A681B490B68D06A0122824023EA020304
:101260000B60B4F1FF3F13D02C44134B1B685C6040
:10127000A54216D8134B18680F4B19680431124B4E
:101280009847124B1B689C423CBF104B1C6070BDC2
:10129000002EE9D0084B196804310D480D4B9847D2
:1012A00070BD0D4B1868044B19680431064B984704
:1012B00070BD00BF9CC20720A0C10720ED0408003C
:1012C00024C20720A4C10720B904080054C2072083
:1012D00074C20720A1040800A8C107202DE9F04F1F
:1012E00083B083460D460193DDF834A09600304666
:1012F000604B9847002800F08D80074660205D4BCA
:1013000098470446002800F0828007633246A521F2
:101310003846594B9847043E236B1E4426F0070677
:101320002B7884F834302B7863B12B4604F13402E7
:1013300005F11301587802F8010F13F8010F08B1F5
:101340008B42F7D1002784F847700C9D042D28BFED
:101350000425E5622565676504F104084046DFF869
:101360006C91C84704F11800C8472461C5F1050510
:10137000A5616462A76584F85C70019A594630469D
:101380003E4B98472060BAF1000F01D0CAF80040E8
:101390003B4B98473B4A1368013313603A4B1B6839
:1013A000002B3AD0394B1B683BB9374B1B68DA6AC4
:1013B000E36A9A429CBF344B1C60354A1368013380
:1013C0001360A364E06A334A1168012383400B432E
:1013D000136000EB800041462F4B03EB80002F4B46
:1013E00098472F4B9847294B1B68002B3BD0264B27
:1013F0001B68DA6AE36A9A4239D24FF08052294B6D
:101400001A60BFF34F8FBFF36F8F01202CE0384677
:10141000254B98474FF0FF3026E01B4B1C601368AC
:10142000012BCAD11C4E3046204DA84706F11400AE
:10143000A84706F12800A84706F13C00A84706F196
:101440005000A8471A4F3846A8471A4E3046A847BA
:101450001948A8471948A8471948A847194B1F60B9
:10146000194B1E60A9E7012003B0BDE8F08F0120F1
:10147000FAE700BF0D080800392A080075050800C2
:10148000C905080010C20720A0C1072070C20720AC
:1014900020C2072024C20720ACC10720A1040800F5
:1014A0000D06080004ED00E075080800850408003A
:1014B00028C207203CC207205CC2072088C2072040
:1014C00074C20720A4C10720A8C107209B040800FC
:1014D00010B582B0184B0193002300938222174964
:1014E0001748184CA047012804D0B0F1FF3F1AD08C
:1014F00002B010BD144B98470128F6D14FF04003BD
:1015000083F31188BFF36F8FBFF34F8F4FF0FF321C
:101510000E4B1A6001220E4B1A6000220D4B1A600E
:101520000D4B9847E4E74FF0400383F31188BFF376
:101530006F8FBFF34F8FFEE750C20720C03A0800FD
:10154000B9110800DD120800F91D080054C2072077
:1015500070C207209CC20720E1060800024A1368F7
:1015600001331360704700BF1CC20720014B18688D
:10157000704700BF9CC207202DE9F0473D4B1B6818
:10158000002B69D13C4B1D6801351D60C5B93B4B33
:101590001B681B6843B14FF0400383F31188BFF30E
:1015A0006F8FBFF34F8FFEE7344A1168344B1868D2
:1015B00010601960334A136801331360324B984747
:1015C000324B1B689D420CD20024314B1B68DB6AF6
:1015D00003EB83039B002F4AD358022B28BF01241F
:1015E0003FE00024DFF89490DFF8BC802A4F1FE032
:1015F0004FF0FF32254B1A60E7E7244A1360E4E717
:1016000006F11800C047F06A3A680123834013438B
:101610003B6000EB800051461E4B03EB80001F4BEC
:1016200098471B4B1B68F26ADB6A9A4228BF012469
:10163000D9F800301B68002BDAD0D9F80030DB680D
:10164000DE6873689D42D8D306F1040A5046C0474D
:10165000B36A002BD4D1D6E7114A13680133136063
:101660000024104B1B68002B0CBF20460120BDE856
:10167000F08700BF1CC207209CC20720A4C107201E
:10168000A8C1072058C207208D11080054C20720A6
:10169000A0C10720ACC1072024C20720A104080074
:1016A00018C20720A0C20720ED040800354B1B68B4
:1016B00043B94FF0400383F31188BFF36F8FBFF33B
:1016C0004F8FFEE72DE9F0412F4B98472D4B1A68BD
:1016D000013A1A601B68002B50D12C4B1B682BB9A8
:1016E00000242B4B98472046BDE8F0810024294F69
:1016F000294E2A4D3B6803B3FB68DC6804F11800EF
:10170000B04704F104084046B047E06A2A68012364
:10171000834013432B6000EB80004146204B03EBDA
:101720008000204B9847204B1B68E26ADB6A9A4294
:10173000E0D301221D4B1A60DCE70CB11C4B98472B
:101740001C4B1C686CB11C4F184E012501E0013C7C
:1017500004D0B8470028FAD03560F8E70022154BCE
:101760001A60124B1B685BB14FF08052134B1A602A
:10177000BFF34F8FBFF36F8F0124B2E70024B0E7B0
:101780000024AEE71CC20720C905080010C20720CC
:101790000D0608005CC20720ED04080024C20720E3
:1017A000ACC10720A1040800A0C10720A0C20720E7
:1017B0008D11080018C207207915080004ED00E01B
:1017C00038B550B1054689B94FF0400383F311880D
:1017D000BFF36F8FBFF34F8FFEE74FF0400383F3EC
:1017E0001188BFF36F8FBFF34F8FFEE7194B1B6854
:1017F00043B14FF0400383F31188BFF36F8FBFF302
:101800004F8FFEE70C46144B9847144B18682A6814
:101810001444904214D2A24216D92C60A04203D2A2
:101820000021201A0E4B98470E4B984780B94FF075
:1018300080520D4B1A60BFF34F8FBFF36F8F38BDCF
:10184000A24203D8A04201D32C60EDE72C60E7E769
:1018500038BD00BF1CC207205D1508009CC20720D0
:1018600039120800AD16080004ED00E01F4B1B689C
:10187000C3B900221E4B1A601E4B1B68B3FA83F3D8
:10188000DBB2C3F11F0303EB830292001A498A58AB
:1018900062B94FF0400383F31188BFF36F8FBFF33A
:1018A0004F8FFEE70122124B1A60704710B4124AA4
:1018B0009900C81802EB80004468646844601944C9
:1018C0000246083294420AD003EB83030A4A02EB31
:1018D00083035B68DA68094B1A6010BC7047606864
:1018E000054A02EB81025060EEE700BF1CC20720F0
:1018F000A0C2072024C20720ACC10720A0C1072036
:1019000040B94FF0400383F31188BFF36F8FBFF3EB
:101910004F8FFEE710B50C46044B19681831044B85
:10192000984701212046034B984710BDA0C10720CE
:10193000B90408003912080038B578B114460D46CC
:101940000B4B196818310B4B9847002C21460CBFE4
:1019500028464FF0FF30084B984738BD4FF0400302
:1019600083F31188BFF36F8FBFF34F8FFEE700BF84
:10197000A0C10720A10408003912080038B5C368C7
:10198000DC682CB304F118052846184B9847184B0F
:101990001B6833BB251D2846144B9847E06A154A3F
:1019A0001168012383400B43136000EB800029463C
:1019B000114B03EB8000114B9847114B1B68E26AF7
:1019C000DB6A9A4283BF01200E4B1860002038BDAD
:1019D0004FF0400383F31188BFF36F8FBFF34F8F36
:1019E000FEE729460848054B9847E6E7ED0408005E
:1019F0001CC2072024C20720ACC10720A104080094
:101A0000A0C10720A0C207205CC20720034B1B68AF
:101A10000360034B1B684360704700BF58C2072038
:101A20009CC20720E8B170B5054619B30C461B4BA4
:101A300098471B4B1A6869682368B3F1FF3F29D0A8
:101A4000184800682E68864201D08A4224D2521A71
:101A50009A4218D3002323600124134B9847204651
:101A600070BD4FF0400383F31188BFF36F8FBFF356
:101A70004F8FFEE74FF0400383F31188BFF36F8F62
:101A8000BFF34F8FFEE79B1A23602846074B98470A
:101A90000024E2E70024E0E70124DEE7C9050800AE
:101AA0009CC2072058C207200D0608000D1A080026
:101AB0000122014B1A607047A0C20720054B1B682A
:101AC00033B1054B1B68002B0CBF02200020704770
:101AD0000120704770C207201CC20720002850D088
:101AE00038B50446C26A28490968C96A8A423FD2A1
:101AF0008169002905DB24490968C96AC1F105012A
:101B0000816102EB8202214901EB8202616991420B
:101B100005D01D4A1268D26AE262012038BD251D37
:101B200028461B4B984770B9E26A02EB82039B0080
:101B30001649CB583BB917480368012101FA02F254
:101B400023EA02020260104B1B68D86AE062114A65
:101B50001168012404FA00F30B43136000EB8000CA
:101B600029460A4B03EB80000B4B9847204638BDB3
:101B7000054A1268006DD36A98422CBF00200120EC
:101B800038BD0020704700BFA0C10720ACC10720AE
:101B9000ED04080024C20720A104080000284AD050
:101BA00038B50446274A1268904208D04FF04003E7
:101BB00083F31188BFF36F8FBFF34F8FFEE7426D42
:101BC00042B94FF0400383F31188BFF36F8FBFF327
:101BD0004F8FFEE7013A4265C06A216D88422CD0E2
:101BE000002A2CD1251D2846174B984768B9E16A71
:101BF00001EB81039B00154AD35833B9144803689D
:101C000001228A4023EA02030360206DE062C0F1F2
:101C10000503A3610E4A1168012404FA00F30B4383
:101C2000136000EB80002946084B03EB8000094B52
:101C30009847204638BD00207047002038BD00205E
:101C400038BD00BFA0C10720ED040800ACC10720CB
:101C500024C20720A1040800002855D038B5044646
:101C6000406D40B94FF0400383F31188BFF36F8F8D
:101C7000BFF34F8FFEE7226D8A4238BF0A46E16A02
:101C8000914201D0012800D038BD2048006884422C
:101C900008D14FF0400383F31188BFF36F8FBFF378
:101CA0004F8FFEE7E262A0690028A4BFC2F10502DF
:101CB000A26101EB8101164A02EB810162698A424D
:101CC000E2D1251D2846134B984768B9E16A01EB1C
:101CD00081039B000E4AD35833B90F480368012291
:101CE0008A4023EA02030360E06A0B4A1168012379
:101CF00083400B43136000EB80002946044B03EB49
:101D00008000064B9847BFE7704700BFA0C107207F
:101D1000ACC10720ED04080024C20720A10408007C
:101D2000054B1B6823B1044B1A68536D013353658F
:101D3000014B1868704700BFA0C1072008B541607B
:101D4000006191420CD8D21A83699A4201D30120D2
:101D500008BD011D094B1868094B9847002008BDB4
:101D60009A4201D2994206D2011D064B1868044BD3
:101D70009847002008BD012008BD00BFA8C2072069
:101D8000B9040800A4C2072070B5104B9847104B47
:101D90001B6813B10F4B984770BD0F4D28460F4E6F
:101DA000B0470F4C2046B0470E4B1D600E4B1C60D9
:101DB0000022102105200D4B9847054B1860002884
:101DC000E8D00B490B4B9847E4E700BFC905080072
:101DD000D8C207200D060800ACC207208504080001
:101DE000C0C20720A4C20720A8C207207D0A08009D
:101DF000C83A0800FD10080010B582B00D4B984796
:101E00000D4B1B686BB10D4B019304230093002312
:101E10004FF482720A490B480B4CA04708B102B03C
:101E200010BD4FF0400383F31188BFF36F8FBFF3F2
:101E30004F8FFEE7891D0800D8C20720DCC20720AB
:101E4000D03A08006D1F0800DD120800D8B130B587
:101E500085B015460446144A106810B31A4600911E
:101E600001950294052917DC104B984702284FF082
:101E700000030CBF089A1A4669460B4800680C4CD0
:101E8000A04705B030BD4FF0400383F31188BFF386
:101E90006F8FBFF34F8FFEE700236946054CA047C5
:101EA000EFE70020EDE700BFD8C20720BD1A080009
:101EB000D10A0800B10C08002DE9F04782B0804635
:101EC000234B98470746234B1B68984219D300239E
:101ED000C8F800301F4B1F60384602B0BDE8F087DD
:101EE000002100910B46524620461B4CA04750B99A
:101EF0004FF0400383F31188BFF36F8FBFF34F8F11
:101F0000FEE7164D164E2B681A68C2B1DB68D3F88F
:101F100000A0DC6804F104094846B047636A204623
:101F20009847E369012BEED1A36953449A45D7D270
:101F300063602461494628680A4B9847E3E70A4AE8
:101F400010680649086013600123C8F80030C1E733
:101F50006D150800D4C207204D1E0800A4C207203A
:101F6000ED040800B9040800A8C207202DE9F047D5
:101F700088B0704E704FDFF8E891DFF8E881336881
:101F80001A6872B1DB681C686C4B984704A86C4BEC
:101F900098470546049B002B52D1A04223D2002231
:101FA0000FE0664B984704A8654B98470546049B8D
:101FB000002B45D1634B1B681A68B2FA82F25209B2
:101FC0000024611B604B1868604B9847B84738B9CC
:101FD0004FF08053C9F80030BFF34F8FBFF36F8FBE
:101FE000594D5B4C35E0B8473368DB68D3F80CA03B
:101FF0000AF10400C047DAF81C30012B04D0DAF8EB
:10200000243050469847EBE7DAF8181023462A4662
:10201000214450464F4DA8470028F0D000210091A0
:102020000B46224650464C4CA0470028E7D14FF0C3
:10203000400383F31188BFF36F8FBFF34F8FFEE729
:10204000B847CDE707990698059B9847049B002B56
:1020500008DA002204A92868A04700288FD0049B32
:10206000002BEFDBDDF818A0DAF8143013B10AF119
:102070000400C04703A8324B9847049B092BE8D8BB
:1020800001A252F823F000BFB1200800B1200800DF
:10209000B120080053200800032108002B2108006C
:1020A000B1200800B12008005320080003210800D7
:1020B000059CDAF818102346024621445046254C68
:1020C000A04700288DD0DAF8243050469847DAF837
:1020D0001C30012B85D1DAF81820002100910B4625
:1020E0000598024450461C4CA04700287FF479AF65
:1020F0004FF0400383F31188BFF36F8FBFF34F8F0F
:10210000FEE70599CAF8181031B1034602460144AA
:102110005046104CA04764E74FF0400383F311880A
:10212000BFF36F8FBFF34F8FFEE750460B4B9847BF
:1021300057E700BFA4C20720AD1608005D150800D0
:10214000B91E0800A8C20720D8C207202D11080018
:10215000950D08003D1D08004D1E0800750808007B
:1021600004ED00E0ED04080010B50E480E4B984752
:102170003E2100200D4B98470D4CA0470028FCD075
:102180000C4B98470C4A0D4B9A620D4CA047002807
:10219000FCD010200B4B98470B4B98470148024B43
:1021A000984710BD00BD0105A50007205D2508006A
:1021B000B1250800C1250800013F0D2000060E4092
:1021C000D1250800F92408009D26080010B54FF419
:1021D0000042164B5A600B20154CA0470C20A0471C
:1021E0000D20A0470E20A0474FF060513B20114C1E
:1021F000A0474FF060515520A0474FF06051562046
:10220000A0470D496820A0470C495C20A0470C4A14
:102210004FF440710B480C4B98474FF000612B2056
:10222000A0474FF000612A20A04710BD501A0E4071
:10223000E1250800ED2208007900002801000028AF
:1022400001000008000E0E40BD2308004264B1F1F9
:10225000805F16D00BD849B1B1F1006F05D1036F83
:10226000016F0B4023EA0203036742607047B1F13C
:10227000405FFBD0B1F1605FF8D0B1F1205FF4D1E5
:102280007047036F13430367EFE7416412F0010FD8
:1022900014BF4166016612F00A0F14BF0162416269
:1022A00012F0020F07D112F0080F18BFC0F8841007
:1022B000416101607047C0F88010F9E710B4019CDB
:1022C000416444B9016643B1016542B941630161AA
:1022D000016010BC70474166F5E74165F5E70163B1
:1022E000F5E7C06C7047806C7047000070B582B035
:1022F0000D46430903F5001303F207735C0201F076
:10230000F043B3F1205F31D016D8B3F1006F1BD08A
:10231000B3F1805F16D100F01F00012686403246DF
:102320004FF080512046224B984715F0010F14BF03
:1023300066662666012017E0B3F1405F21D0B3F155
:10234000605F1ED000200FE000F01F0001268640D5
:1023500032464FF000612046154B984715F0010FAB
:1023600014BF66662666012002B070BD00F01F0132
:1023700001262A4606FA01F120460E4B98473046C0
:10238000F2E705F0605200F01F01012605EA06039E
:102390000093C5F38003B2F1605F14BF00220122F5
:1023A00006FA01F12046044CA0473046DCE700BFA6
:1023B0004D2208008B220800BD22080070B582B0B3
:1023C00005460E46144602F0F043B3F1205F27D0D5
:1023D00011D8B3F1006F16D0B3F1805F11D10A4666
:1023E0004FF08051194B984714F0010F14BF6E66DF
:1023F0002E66012012E0B3F1405F15D0B3F1605FAB
:1024000012D000200AE00A464FF000610F4B9847B7
:1024100014F0010F14BF6E662E66012002B070BD6D
:102420000B4B98470120F9E704F0605204F00103D8
:102430000093C4F38003B2F1605F14BF0022012255
:1024400031462846034CA0470120E7E74D2208000B
:102450008B220800BD2208002DE9F0410446884681
:102460000E4B9847054620460D4B9847054013D024
:102470000C4C04F1600603E0B4420DD010345DB1A1
:1024800020684045F8D161682942F5D0E368984753
:10249000636825EA0305EFE7BDE8F081E322080061
:1024A000E7220800E0C2072008B50B210148024BD3
:1024B000984708BD000E0E405924080008B50C21AD
:1024C0000148024B984708BD00100E4059240800EF
:1024D00008B50D210148024B984708BD00120E4077
:1024E0005924080008B50E210148024B984708BD41
:1024F00000140E4059240800174A136B23F0700390
:1025000018431063936E13F0080F0AD14FF4006361
:1025100011498A6E12F0080F03D1013BF9D1012055
:1025200070470D4A136B23F0030343F00203136358
:10253000936E13F0080F0AD14FF4006306498A6EB8
:1025400012F0080F05D1013BF9D10120704700209E
:1025500070470020704700BF00060E40C8B9114AFE
:10256000136A090289B223F45C1323F0030343F4D2
:102570005C1343F001030B431362936E13F0010FDE
:10258000FBD0084A136A43F09B7343F48033136211
:10259000704704490B6A044A1A40044B13430B6208
:1025A000704700BF00060E40FCFFC8FE0200370166
:1025B000024B986E00F48030704700BF00060E405A
:1025C0004FF00052014B9A62704700BF00060E4068
:1025D000024B986E00F00200704700BF00060E40EC
:1025E00000F07F00054BC3F80C01D3F80C2142F03A
:1025F0001022C3F80C210020704700BF00060E40D7
:10260000FEE7000008B51C4B1C4A9A4210D01C4B38
:10261000194A9A420CD2013B9B1A23F0030304335C
:102620001344164951F8040B42F8040B9A42F9D1AD
:10263000144B154A9A420AD2013B9B1A23F003031A
:1026400004331344002142F8041B9342FBD10F4B87
:1026500023F0604222F07F020D498A6003F160435B
:10266000B3F5801F03D28B6843F000538B60094B96
:102670009847094B9847FEE700000720403B0800B9
:102680007409072000C4072074090720000008000F
:1026900000ED00E0FD280800C52808003D4B1B6B3D
:1026A00003F00303032B0ED8DFE803F0021C3838D5
:1026B000394B5B6913F0800F14BF4FF400424FF4A5
:1026C000FA42364B1A60334B1B6B03F07003702BCE
:1026D00057D0304B1A6B3149C2F302120B68D3400A
:1026E0000B6070472B4B1B6A13F0807F03D02C4A82
:1026F0002A4B1A60E7E72B4A284B1A60254B1B6AC6
:1027000003F07003102B05D0202BDCD1244A234B7F
:102710001A60D8E7244A214B1A60D4E71D4B1B6A84
:1027200013F0807F0CD01E4A1C4B1A60194B1B6B98
:1027300003F00303022B16D01C4A184B1A60C2E7A1
:10274000184A164B1A60134B1B6A03F07003102BC8
:1027500005D0202BEAD1124A104B1A60E6E7124A44
:102760000E4B1A60E2E70B4A916A926A0B48C1F37A
:102770000A41036801FB0333D2B2B3FBF2F30360F7
:10278000A1E7064A13680A49A1FB03135B0813601B
:10279000704700BF00060E40101A0E40300107209F
:1027A000001BB70000093D0000127A00001C4E0E0D
:1027B000ABAAAAAA0A4B1B6853B1094B1B681A188B
:1027C0000849914208DB1046054A106018467047D8
:1027D000054A034B1A60F0E74FF0FF30704700BF27
:1027E00050C30720FC7F082000E407204FF0FF3093
:1027F00070474FF400534B60002070470020704733
:1028000000B585B0084B98470390084B93E8030048
:1028100001908DF80810064D064C01A8A84701212B
:1028200003A8A047F9E700BF6D150800F03A0800BB
:1028300061030800C117080010B582B0002301939E
:1028400001220092FA2203490348044CA04702B037
:1028500010BD00BFD83A080001280800DD120800AA
:1028600000B585B0094B98470390094B93E80300E6
:102870000190ADF80810090C8DF80A10054D064CB2
:1028800001A8A847012103A8A047F9E76D15080092
:10289000103B080061030800C117080010B582B0A2
:1028A0000023019301220092FA2203490348044CB9
:1028B000A04702B010BD00BFF83A08006128080028
:1028C000DD12080008B5074B9847074B9847074BA0
:1028D0009847074B9847074B9847074B9847012065
:1028E00008BD00BF69210800CD210800A103080030
:1028F000392808009D280800D114080070B50F4E33
:102900000F4D761BB61018BF002405D0013455F8C2
:10291000043B9847A642F9D10A4E0B4D01F0FEF850
:10292000761BB61018BF002406D0013455F8043BBE
:102930009847A642F9D170BD70BD00BF283B080082
:10294000283B0800303B0800283B0800844641EA49
:10295000000313F0030349D1403A23D30B6803600B
:102960004B6843608B688360CB68C3600B6903610D
:102970004B6943618B698361CB69C3610B6A0362F5
:102980004B6A43628B6A8362CB6AC3620B6B0363DD
:102990004B6B43638B6B8363CB6BC36340304031C2
:1029A000403ADBD230320BD30B6803604B68436094
:1029B0008B688360CB68C36010301031103AF3D25B
:1029C0000C3205D351F8043B40F8043B043AF9D2E9
:1029D000043208D0D2071CBF11F8013B00F8013BBC
:1029E00001D30B8803806046704700BF082A13D3C9
:1029F0008B07B1D010F00303AED0C3F10403D21A99
:102A0000DB071CBF11F8013B00F8013BA4D331F8F0
:102A1000023B20F8023B9FE7043AD9D3013A11F870
:102A2000013B00F8013BF9D20B7803704B784370FF
:102A30008B7883706046704770B4860746D0541E0A
:102A4000002A41D0CAB2034602E014F1FF343BD35E
:102A500003F8012B9D07F8D1032C2ED9CDB245EAFE
:102A600005250F2C45EA054519D9264603F1100224
:102A7000103E0F2E42F8105C42F80C5C42F8085CE5
:102A800042F8045C02F11002F2D8A4F1100222F024
:102A90000F0204F00F041032032C13440DD91E460C
:102AA0002246043A032A46F8045BFAD8221F22F091
:102AB00003020432134404F003042CB1C9B21C44D1
:102AC00003F8011B9C42FBD170BC704714460346BF
:102AD000C2E700BF00290CBF022200224FF480632E
:102AE00000F000B82DE9F043614D83B02D68044635
:102AF0000F4690461E4615B1AB6B002B64D0B8F163
:102B0000020F06D0B8F1010F00F29F80002EC0F234
:102B10009C80636ED80734D52146284600F056F9CC
:102B2000216B41B104F14003994202D0284600F0E4
:102B30004BFA002323630022B4F90C30A2616260D7
:102B40001A063AD423F44A6323F00303B8F1020FC0
:102B5000A3811DD001AB6A462146284600F04AFBFE
:102B6000A3891843A081002E32D1009E304600F088
:102B70006FFB074600286BD0A38943F08003A38135
:102B800028E0A3899905C7D4A06D00F02FFBC3E707
:102B9000002500260120616E04F1430243F0020388
:102BA000A660CE07A38160612260226101D49805EE
:102BB0003ED5284603B0BDE8F0832169284600F0E1
:102BC00003FAB4F90C30BDE7284600F057F996E750
:102BD000002FCBD0AB6B002B33D0009BB4F90C2073
:102BE0009E421CBF42F40062A281B8F1010F04BFF3
:102BF00042F00102A28192B212F00803276027611D
:102C000066610ED0D1071AD50023656E764215F0A5
:102C10000105A661A36009D00025284603B0BDE8E0
:102C2000F083A360656E15F00105F5D19305C0D45E
:102C3000A06D00F0DDFA284603B0BDE8F083A66081
:102C4000F0E7284600F01AF9C7E74FF0FF35B0E784
:102C5000DDF80090B14504D0484600F0F9FA074687
:102C600020B9B4F90C304FF0FF3592E74E4683E7B8
:102C700034010720024B13B1024800F005B8704739
:102C800000000000F52E0800002301461A461846F1
:102C900000F000BEB1F90C302DE9F0419AB20D46BA
:102CA000110780463AD46A6843F40063002AAB8176
:102CB00070DDAC6A002C4AD000229BB2D8F80060CC
:102CC000C8F8002013F4805268D02A6D5F0705D53C
:102CD00069682B6B521A0BB1EB6BD21A0023E969AE
:102CE0004046A047441C3DD00021B5F90C302A696C
:102CF00023F40063AB81DB0469602A6048D4296B4C
:102D0000C8F8006019B305F14003994202D040466B
:102D100000F05AF900202863BDE8F0812E69B6B1B1
:102D2000910718BF00232C6808BF6B692E60A41B95
:102D3000AB600AE0234632466F6AE9694046B8470D
:102D40000028A4EB0004064404DD002CF2DC002083
:102D5000BDE8F081AB894FF0FF3043F04003AB8119
:102D6000BDE8F081D8F800401D2CF3D8164BE340A5
:102D7000DB4313F00103EDD1B5F90C20296922F4EE
:102D80000062AA81D2046B602960B8D5002CB6D14C
:102D90002865B4E7EA6B002A8BDCD8E70123E969F0
:102DA0004046A047431C024602D0AB89AC6A8DE77F
:102DB000D8F80030002BF8D01D2B01D0162BC9D12C
:102DC000C8F80060C3E700BF0100402038B50D46D9
:102DD000044608B1836BBBB1B5F90C0088B16B6ECA
:102DE000DB0701D4810517D520462946FFF752FF9E
:102DF0006B6E0446DA0702D4AB899B0507D52046E3
:102E000038BD0446204638BD00F038F8E4E7A86D28
:102E100000F0EEF9204638BDA86D00F0E7F9E3E7D1
:102E2000014900F0B7B900BF7D390800002310B593
:102E300004468181C281036043608360436603610D
:102E400043618361194608225C30FFF7F5FD0748AE
:102E50000749084A084B2062E4616162A262E362AA
:102E600004F15800BDE8104000F0BCB9E13708009B
:102E700005380800413808006138080010B50446DC
:102E8000144800F0B3F9A26BFAB90320124904F513
:102E90003B73C4F8E832C4F8E022C4F8E402E1630A
:102EA00060680421FFF7C2FFA06801220921FFF733
:102EB000BDFFE06802221221FFF7B8FF0123054899
:102EC000A363BDE8104000F093B90248BDE810408C
:102ED00000F08EB9E4C30720212E0800014800F05D
:102EE00085B900BFF8C30720014800F081B900BFD1
:102EF000F8C3072038B50A4C0A4D641BA4100AD049
:102F000004F18043013B05EB8305013C55F804398E
:102F10009847002CF9D1BDE8384000F009BE00BF49
:102F2000403B08003C3B0800F8B50C46234F0646E2
:102F300000F038FCBB68C4F57E615D680F3125F098
:102F40000305294421F47F6121F00F01A1F580548C
:102F5000B4F5805F07DB0021304600F02FFCBB6832
:102F60002B44984204D0304600F022FC0020F8BDEB
:102F70006142304600F022FC01300DD0104BBA689F
:102F800019682D1B45F001053046091B5560196075
:102F900000F00EFC0120F8BD0021304600F00EFCD0
:102FA000BA68831A0F2BDEDD064C0549246843F00E
:102FB0000103001B53600860D5E700BF64050720CC
:102FC00054C307206C090720002944D02DE9F041A3
:102FD0000D46804600F0E6FB55F8047C6949A5F1F2
:102FE000080427F00103E2188E685068B24220F00E
:102FF00003005ED0FE0750600BD455F8087C01F149
:10300000080EE41BA5683B4475456DD0E768EF608A
:10301000BD6015186D68ED073ED543F00102626092
:10302000E350B3F5007F17D20122DB0898104D68FA
:10303000134451F83370824001EBC3002A4308382F
:10304000E060A7604A6041F83340FC604046BDE85C
:10305000F04100F0ADBB70475A0A042A52D89A09D1
:1030600002F13907FF0002F13805C819CA590838BA
:1030700090424FD0516821F003018B4232D29268C6
:103080009042F7D1C368A060E3609C60C460404692
:10309000BDE8F04100F08CBB95683B4F0344BD4256
:1030A00040D0D06843F00102E86085606260E35080
:1030B000B7E7FF07034407D455F8085C641BE268D0
:1030C000A0682B44C2609060304A43F0010012684F
:1030D000606093428C60B9D32D4B40461968FFF76E
:1030E00023FFB3E71046CDE711184968C90744D458
:1030F00091680344D26843F00100CA609160606047
:10310000E350A3E7142A16D802F15C07FF0002F18E
:103110005B05AAE70123AA104D6893402B434B603F
:103120000346B0E743F001024C610C61E560A56025
:103130006260E3508AE7542A06D81A0B02F16F073F
:10314000FF0002F16E0590E7B2F5AA7F06D8DA0B10
:1031500002F17807FF0002F1770586E740F254504C
:10316000824206D89A0C02F17D07FF0002F17C052D
:103170007BE74FF47E777E2577E743F001016160BE
:10318000136063E7640507206C05072070090720BA
:1031900084C307202DE9F84310F538761ED0884601
:1031A00007464FF000097568B468013D10D4A38943
:1031B000013D012B08D9B4F90E30013304D021466A
:1031C0003846C04749EA00096B1C04F16804EED197
:1031D0003668002EE7D14846BDE8F883B146484638
:1031E000BDE8F883704700BF704700BF704700BF5D
:1031F000704700BF70B50C46B1F90E1090B00029B1
:1032000015461E4614DB01AA00F01AFC00280FDB4D
:10321000029A4FF4806302F47042A2F50052B2FAAF
:1032200082F24FF40060520932602B6010B070BD22
:103230000023A289336012F0800004D04022184697
:103240002A6010B070BD4FF480632B6010B070BD69
:10325000024B0146186800F003B800BF3401072094
:103260002DE9F04F01F10B06162E83B0054640F212
:103270009E8036F0070600F1BD80B14200F2BA80B0
:1032800000F090FAB6F5FC7FC0F08582730A00F07A
:10329000B880042B00F26C81B30903F1390003F10B
:1032A000380EC100B84F39444C680839A14206D1E4
:1032B0000CE0002A80F2AB80E468A14206D063688B
:1032C00023F003039A1B0F2AF3DD70463C69DFF8F5
:1032D000CCE2744500F09E81636823F003039A1BDF
:1032E0000F2A00F38381002AC7F814E0C7F810E022
:1032F00080F29180B3F5007F80F054810122DB08D9
:1033000079684FEAA30C134457F8338002FA0CF2A1
:1033100007EBC30C0A43ACF10801E160C4F8088074
:103320007A6047F83340C8F80C40012483109C4071
:1033300094427DD8144206D120F003006400144268
:1033400000F10400FAD007EBC009CC468046DCF857
:103350000C309C4507D15FE1002A80F26D81DB686B
:103360009C4500F05981596821F003018A1B0F2AFE
:10337000F2DDDC68D3F808C046F0010828461E4498
:1033800042F00105C3F80480CCF80C40C4F808C032
:103390007E613E61C6F80CE0C6F808E075605A50E0
:1033A000009300F005FA009B03F108041EE01029C9
:1033B00020D800F0F7F9102618230220724F3B4462
:1033C0005C68A3F10802944200F02F816368E16811
:1033D00023F0030323445A68A66842F00102F16017
:1033E00028468E605A6000F0E3F90834204603B0A6
:1033F000BDE8F08F00240C2320462B6003B0BDE80D
:10340000F08F40204FF400714FF03F0E4AE7234405
:103410005A68E168E0E723445A68284642F001020E
:103420005A60083400F0C4F9204603B0BDE8F08FBC
:10343000BC68636823F00308B04504D3A8EB060317
:103440000F2B00F38580DFF85891504BD9F80020FE
:103450001B680132334404EB080A00F0548103F581
:1034600080530F3323F47F6B2BF00F0B5946284604
:1034700000F0A4F9411C024600F0FB80824500F2F6
:10348000F680434B19685944196000F04C81D9F813
:10349000000001301BBFA2EB0A0A5144C9F800200A
:1034A000196012F0070100F01481C1F10800C1F5A4
:1034B00080510244083102EB0B09C9F30B09A1EB5F
:1034C0000909494628460193009200F077F9431C08
:1034D0009DE80C0000F04281801A484440F0010051
:1034E0001968BC424944BA601960506017D0B8F1FD
:1034F0000F0F40F2FA804FF0050C6268A8F10C0043
:1035000020F0070002F0010204EB000E02430F2836
:103510006260CEF804C0CEF808C000F216811D4BE0
:10352000BC681A68914288BF19601B4B1A689142A7
:10353000626888BF196022F003029642A2EB06037C
:1035400001D80F2B04DC284600F032F900244DE7A7
:1035500046F0010243F00103264462602846BE6043
:103560000834736000F024F9204603B0BDE8F08F02
:10357000142B70D9542B00F2A280330B03F16F008F
:1035800003F16E0EC1008DE66405072084C3072099
:1035900054C307207CC3072080C307206C05072085
:1035A0006C0907205A0A042A5BD9142A00F2AE805B
:1035B00002F15C01C9005B3207EB010C7958ACF1F8
:1035C000080C8C4500F088804A6822F00302934280
:1035D00073D289688C45F7D1DCF80C307A68E360E7
:1035E000C4F808C09C60CCF80C409EE646F0010C84
:1035F00042F001012644C4F804C028467E613E61C1
:10360000C6F80CE0C6F808E07160E25000F0D0F8AF
:103610000834EBE67A6888E608F1010818F0030F31
:103620000CF1080C7FF493AE2DE0DC68A34208BFD8
:1036300002303FF44BAEC9E61C4619444A68DB68C9
:1036400054F8086F42F001024A602846F3609E6019
:1036500000F0AEF8CAE603F15C0003F15B0EC100B6
:1036600020E69A0902F13901C9003832A4E7BC42C8
:1036700054D0BC68626822F003025EE759F808394A
:10368000994540F0868010F0030F00F1FF30F5D12E
:103690007B6823EA04037B6064009C423FF6C8AE6B
:1036A000002C3FF4C5AE1C4240467FF44CAE640093
:1036B0001C4200F10400FAD045E68C468CE7B3F5D5
:1036C000AA7F15D8F30B03F1780003F1770EC10040
:1036D000E8E54FF48051EEE601217B68921001FA93
:1036E00002F21A437A60634679E7012353602AE7BE
:1036F00040F25452934222D8B30C03F17D0003F1FF
:103700007C0EC100CEE503F1100BAFE6542A29D898
:103710001A0B02F16F01C9006E324DE7204B196898
:1037200059441960B3E6CAF30B0000287FF4AFAE2A
:1037300008EB0B03BA6843F001035360EFE67F2008
:103740004FF47E714FF07E0EACE504F1080128467F
:103750000093FFF739FC009B1968E0E601204FF069
:103760000009BDE6B2F5AA7F05D8DA0B02F17801AF
:10377000C900773220E740F254518A4205D89A0CAA
:1037800002F17D01C9007C3216E74FF47E717E2282
:1037900012E77B6880E7F00806F108030EE600BF39
:1037A00054C307200148FFF721BD00BFE8C307202D
:1037B0000148FFF71DBD00BFE8C3072038B500234F
:1037C000064C054608462360FEF7F4FF431C00D074
:1037D00038BD2368002BFBD02B6038BDFCC307200D
:1037E00010B50C46B1F90E1000F054F9002803DBB7
:1037F000236D0344236510BDA38923F48053A38163
:1038000010BD00BF2DE9F0410C46B1F90C101F4668
:10381000CB051646054607D5B4F90E100223002243
:1038200000F022F9B4F90C1021F48051A1813B463B
:103830003246B4F90E102846BDE8F04100F014B845
:1038400010B50C46B1F90E1000F00EF9A389421C18
:103850000EBF23F4805343F480532065A38110BD31
:10386000B1F90E1000F078B8F8B50E460025084CF6
:10387000114607461A4630462560FCF78FFC431C6C
:1038800000D0F8BD2368002BFBD03B60F8BD00BF23
:10389000FCC307202DE9F8432C4D064628689846BE
:1038A0000F469146FFF7A2FC294B1C68D4F848311B
:1038B000002B3ED05A681F2A1CDC02F1010E76B1A3
:1038C000012103EB8204C4F88890D3F88801914069
:1038D0000843022EC3F88801C4F8088123D00232BD
:1038E000C3F804E0286843F82270FFF781FC002049
:1038F000BDE8F883174B0BB34FF4C870FFF7A8FC73
:103900000346D8B10020D4F848114FF0010E58609A
:1039100019600246C4F84831C3F88801C3F88C0125
:10392000002EDCD0CCE7D3F88C010143C3F88C1116
:10393000D5E704F5A673C4F84831BBE72868FFF75C
:1039400057FC4FF0FF30BDE8F88300BF600507204B
:10395000183B08005132080038B50023064C0546D4
:1039600008462360FEF742FF431C00D038BD2368A1
:10397000002BFBD02B6038BDFCC3072070B559B1BC
:1039800005460C4610B1836B002B3CD0636ED80704
:1039900005D5B4F90C302BB90026304670BDA3898B
:1039A00099053CD521462846FFF774F9E36A064697
:1039B00033B1E169284698470028B8BF4FF0FF3679
:1039C000A3891A0622D4216B41B104F14003994224
:1039D00002D02846FFF7F8FA00232363616C21B177
:1039E0002846FFF7F1FA00236364FFF777FA002215
:1039F000636EA281DB070ED5A06DFFF7F5FBFFF725
:103A000073FA304670BDFFF739FABFE721692846DF
:103A1000FFF7DAFAD7E7A06DFFF7EAFBECE7A06D56
:103A2000FFF7E4FBB4F90C30002BBBD1666E16F047
:103A30000106B1D1A06DFFF7DBFB304670BD00BFC2
:103A400070B50D460023074C0646114628462360F4
:103A5000FEF7CFFE431C00D070BD2368002BFBD0C7
:103A6000336070BDFCC30720F8B50E460025084C36
:103A7000114607461A4630462560FEF7BFFE431C36
:103A800000D0F8BD2368002BFBD03B60F8BD00BF21
:103A9000FCC30720F8B50E460025084C1146074622
:103AA0001A4630462560FCF75BFB431C00D0F8BD8E
:103AB0002368002BFBD03B60F8BD00BFFCC3072090
:103AC00049444C4500000000546D72510000000054
:103AD000546D7220537663004D6573736167652082
:103AE00031207072696E74207461736B0000000085
:103AF00056616420000000004D65737361676520A6
:103B000032207072696E74207461736B0000000063
:103B100042726121200A000038010720F8B500BF79
:103B2000F8BC08BC9E467047752C080019010800B7
:103B3000F8B500BFF8BC08BC9E467047F500080009
:103B40004FF48063204A136002F5007213601F4B2C
:103B50001B6A13F0807F07D11D4A1C4B1A621A465C
:103B6000936E13F0010FFBD01A4A184B1A621A46D3
:103B7000936E13F4803FFBD0144A136B23F00303BE
:103B800043F001031363936E13F0080FFBD0124A46
:103B90000E4B9A621A46936E13F0020FFBD011225D
:103BA0000A4B1A631A46936E13F0080FFBD01222C9
:103BB000064B1A631A46936E13F0080FFBD0074AA0
:103BC000074B1A60704700BF000A0E4000060E4007
:103BD0000908370009083701013F0D2000BD010524
:103BE000300107201B4B984215D91B4B984219D91D
:103BF0001A4B98421ED91A4B984223D9194B984216
:103C000094BF4FF480634FF4A063174A136002F52A
:103C10000072136070470023134A136002F50072AC
:103C2000136070474FF480730F4A136002F50072FF
:103C3000136070474FF400730B4A136002F5007273
:103C4000136070474FF44073074A136002F5007227
:103C500013607047BFEA21017FF0FA02FF8FD003A3
:103C6000FFB3C4047F4A5D05000A0E40AAAAAAAAAF
:103C700000093D003801072000000000240407204F
:103C80008C040720F404072000000000000000005E
:103C90000000000000000000000000000000000024
:103CA0000000000000000000000000000000000014
:103CB0000000000000000000000000000000000004
:103CC00000000000000000000000000000000000F4
:103CD00000000000000000000000000000000000E4
:103CE00000000000000000000000000000000000D4
:103CF00000000000000000000000000000000000C4
:103D000000000000000000000000000000000000B3
:103D100000000000000000000000000000000000A3
:103D200001000000000000000E33CDAB34126DE640
:103D3000ECDE05000B0000000000000000000000A9
:103D40000000000000000000000000000000000073
:103D50000000000000000000000000000000000063
:103D60000000000000000000000000000000000053
:103D70000000000000000000000000000000000043
:1040A000D8C30720000000000000000064050720BE
:1040B000640507206C0507206C05072074050720A0
:1040C000740507207C0507207C0507208405072050
:1040D000840507208C0507208C0507209405072000
:1040E000940507209C0507209C050720A4050720B0
:1040F000A4050720AC050720AC050720B405072060
:10410000B4050720BC050720BC050720C40507200F
:10411000C4050720CC050720CC050720D4050720BF
:10412000D4050720DC050720DC050720E40507206F
:10413000E4050720EC050720EC050720F40507201F
:10414000F4050720FC050720FC05072004060720CE
:10415000040607200C0607200C060720140607207B
:10416000140607201C0607201C060720240607202B
:10417000240607202C0607202C06072034060720DB
:10418000340607203C0607203C060720440607208B
:10419000440607204C0607204C060720540607203B
:1041A000540607205C0607205C06072064060720EB
:1041B000640607206C0607206C060720740607209B
:1041C000740607207C0607207C060720840607204B
:1041D000840607208C0607208C06072094060720FB
:1041E000940607209C0607209C060720A4060720AB
:1041F000A4060720AC060720AC060720B40607205B
:10420000B4060720BC060720BC060720C40607200A
:10421000C4060720CC060720CC060720D4060720BA
:10422000D4060720DC060720DC060720E40607206A
:10423000E4060720EC060720EC060720F40607201A
:10424000F4060720FC060720FC06072004070720C9
:10425000040707200C0707200C0707201407072076
:10426000140707201C0707201C0707202407072026
:10427000240707202C0707202C07072034070720D6
:10428000340707203C0707203C0707204407072086
:10429000440707204C0707204C0707205407072036
:1042A000540707205C0707205C07072064070720E6
:1042B000640707206C0707206C0707207407072096
:1042C000740707207C0707207C0707208407072046
:1042D000840707208C0707208C07072094070720F6
:1042E000940707209C0707209C070720A4070720A6
:1042F000A4070720AC070720AC070720B407072056
:10430000B4070720BC070720BC070720C407072005
:10431000C4070720CC070720CC070720D4070720B5
:10432000D4070720DC070720DC070720E407072065
:10433000E4070720EC070720EC070720F407072015
:10434000F4070720FC070720FC07072004080720C4
:10435000040807200C0807200C0807201408072071
:10436000140807201C0807201C0807202408072021
:10437000240807202C0807202C08072034080720D1
:10438000340807203C0807203C0807204408072081
:10439000440807204C0807204C0807205408072031
:1043A000540807205C0807205C08072064080720E1
:1043B000640807206C0807206C0807207408072091
:1043C000740807207C0807207C0807208408072041
:1043D000840807208C0807208C08072094080720F1
:1043E000940807209C0807209C080720A4080720A1
:1043F000A4080720AC080720AC080720B408072051
:10440000B4080720BC080720BC080720C408072000
:10441000C4080720CC080720CC080720D4080720B0
:10442000D4080720DC080720DC080720E408072060
:10443000E4080720EC080720EC080720F408072010
:10444000F4080720FC080720FC08072004090720BF
:10445000040907200C0907200C090720140907206C
:10446000140907201C0907201C090720240907201C
:10447000240907202C0907202C09072034090720CC
:10448000340907203C0907203C090720440907207C
:10449000440907204C0907204C090720540907202C
:1044A000540907205C0907205C090720FFFFFFFF74
:0444B0000000020006
:04000003800026054E
:00000001FF
