:0200000280007C
:1000000070E50720152608001126080011260800B3
:100010001126080011260800112608000000000023
:10002000000000000000000000000000B105080012
:10003000112608000000000051060800990608007B
:1000400011260800112608001126080011260800B4
:1000500011260800112608001126080011260800A4
:10006000112608001126080000000000B92408002D
:10007000CD240800E1240800F52408000000000059
:1000800000000000112608001126080011260800B3
:100090001126080011260800112608001126080064
:1000A0001126080000000000112608001126080093
:1000B0001126080011260800112608001126080044
:1000C0001126080011260800112608001126080034
:1000D0001126080011260800112608001126080024
:1000E0001126080011260800112608001126080014
:1000F0001126080010B5054C237833B9044B13B111
:100100000448AFF300800123237010BDE00A0720EC
:1001100000000000805908000C4B43B10C4810B59A
:100120000C49AFF300800C48036823B910BD0A489E
:10013000036833B97047094B002BF7D0BDE8104076
:100140001847064B002BF5D0184700BF00000000F1
:1001500080590800E40A07208059080000000000C8
:100160002DE9F04180B90C469046002A0FDD8F182A
:10017000084E094D306821462B6898470134BC422F
:10018000F8D14046BDE8F0814FF0FF38F9E78046EE
:10019000F7E700BFFCC40720F4C407200138022899
:1001A00015D82DE9F0410E4614469AB10D46DFF8F8
:1001B00038800C4FD8F8000015F8011B3B689847B1
:1001C00000280ADBA81B013CF4D1BDE8F0814FF008
:1001D000FF3070471046BDE8F0814FF0FF30BDE8BA
:1001E000F08100BFF8C40720FCC40720436913F066
:1001F000020F1DBFC1F30801C1610020012070473B
:10020000436913F0010F05D08369C3F308030B6042
:100210000020704701207047F0B583B004460D46BA
:1002200000230193204B98420DD0204B984212D0CE
:100230001F4B984219D01F4B9C4220D01E4B9C4212
:1002400027D003B0F0BD1F461C4E29463846B047A4
:100250000028FAD1EFE71F46194E01A93846B047EA
:100260000028FAD1019B2B70E8E71E46144C01A927
:100270003046A0470028FAD1019B2B70E1E71E46CB
:100280000F4C01A93046A0470028FAD1019B2B70E2
:10029000D7E71E460A4C01A93046A0470028FAD1EC
:1002A000019B2B70CDE700BF00080E400080094085
:1002B00000C0094000000A4000400A407F040800D6
:1002C0000102080070B50C461E4B98420DD01E4B23
:1002D000984213D01D4B984219D01D4B98421FD005
:1002E0001C4B984225D0002070BD1E461A4D214659
:1002F0003046A8470028FAD1012070BD1E46174D90
:1003000021463046A8470028FAD1012070BD1E467C
:10031000124D21463046A8470028FAD1012070BD71
:100320001E460E4D21463046A8470028FAD101202E
:1003300070BD1E46094D21463046A8470028FAD117
:10034000012070BD00080E400080094000C0094037
:1003500000000A4000400A406F040800ED01080058
:1003600070B5044601210C4B18680C4B98470128C6
:1003700000D070BD217839B1094E0A4D3046A847EA
:1003800014F8011F0029F9D100231A461946024822
:100390000068054CA047ECE700C507202D0F0800BA
:1003A0009057080061290800E10A080030B585B0BF
:1003B0000120144B9847144B1860144C144B1C60CC
:1003C000144A154B1A60154A154B1A60154B0193C8
:1003D0004FF4E13302934FF4006303930820124B70
:1003E000984701A92046114B9847114D2B680021D1
:1003F0009868104CA0472B6800215868A04705B0AA
:1004000030BD00BF950C080000C5072000080E4055
:10041000FCC40720C5020800F8C407201902080020
:10042000F4C4072000BD0105F125080039040800C7
:1004300034010720112B080010B4AC2303600B68B3
:100440004A68B3FBF2F31B095C1E4FF6FE7294423E
:100450000BD803628B68436040F20223C0F820315E
:1004600050230360002010BC70470120FBE7436964
:1004700013F0020F1ABFC1610020012070474369C9
:1004800013F0010F1DBF83690B700020012070471E
:1004900000F1080343604FF0FF328260C3600361E4
:1004A00000230360704700230361704743684B607B
:1004B0009A688A609A68516099600861036801339C
:1004C0000360704730B40D68B5F1FF3F02D000F112
:1004D000080202E0026904E01A4653681C68A5425B
:1004E000FAD253684B6099608A6051600861036872
:1004F0000133036030BC70470369426881689160D2
:100500008268416851605A68904204BF82685A60AC
:10051000002202611A68013A1A60186870470000E8
:1005200082B0002301930D4B1B68B3F1FF3F08D04D
:100530004FF0400383F31188BFF36F8FBFF34F8FEA
:10054000FEE74FF0400383F31188BFF36F8FBFF3D3
:100550004F8F019B002BFCD002B070472C0107206D
:1005600006480068006880F3088862B661B6BFF389
:100570004F8FBFF36F8F00DF00BF000008ED00E07A
:100580004FF0807340F8043C21F0010140F8081C52
:10059000034B40F80C3C40F8202C4038704700BF1B
:1005A000210508000000000000000000000000001D
:1005B000074B19680868B0E8F00F80F30988BFF3AB
:1005C0006F8F4FF0000080F311884EF00D0E7047D2
:1005D0000CC30720704700BF4FF0400383F311881E
:1005E000BFF36F8FBFF34F8F0A4A13680133136055
:1005F000012B0DD1084B1B6813F0FF0F08D04FF0F3
:10060000400383F31188BFF36F8FBFF34F8FFEE773
:10061000704700BF2C01072004ED00E0094B1B6868
:1006200043B94FF0400383F31188BFF36F8FBFF3DB
:100630004F8FFEE7013B034A13600BB983F3118828
:10064000704700BF2C0107200000000000000000E0
:10065000EFF30980BFF36F8F0D4B1A6820E9F00F9D
:1006600010602DE908404FF0400080F3118801F040
:1006700005F94FF0000080F31188BDE808401968C3
:100680000868B0E8F00F80F30988BFF36F8F7047F8
:100690000CC30720704700BF08B54FF0400383F339
:1006A0001188BFF36F8FBFF34F8F054B984718B179
:1006B0004FF08052034B1A60002383F3118808BD6A
:1006C0008915080004ED00E0054B00221A60054979
:1006D0000A600549054A116007221A60704700BF89
:1006E00010E000E018E000E01F48010014E000E026
:1006F00010B582B0294B1A78D2B20192FF221A703B
:100700001B78DBB28DF803309DF8033003F0400313
:10071000234A13700722234B1A609DF8033013F00D
:10072000800F12D0062300E00B469DF803205200F4
:10073000D2B28DF803209DF80320591E12F0800FCD
:10074000F2D1184A1360032B08D04FF0400383F313
:100750001188BFF36F8FBFF34F8FFEE71B0203F4C7
:10076000E063104A1360019BDBB20C4A13700E4B1E
:100770001A6842F4E0021A601A6842F0E0421A6015
:100780000A4B984700240A4B1C600A4B98470A4BB7
:1007900098470A4B9847204602B010BD00E400E09D
:1007A000FC0A0720000B072020ED00E0C906080026
:1007B0002C010720610508007D18080021050800AC
:1007C000EFF305830F2B0FD9104A9B5CDBB2104A65
:1007D00012789A4208D94FF0400383F31188BFF38F
:1007E0006F8FBFF34F8FFEE70A4B1B6803F4E06384
:1007F000094A1268934208D94FF0400383F31188E5
:10080000BFF36F8FBFF34F8FFEE77047F0E300E059
:10081000FC0A07200CED00E0000B072038B5044669
:1008200010F0070F1CBF20F007040834104B984746
:10083000104B1B688BB1104B1B681C444BF2F772BA
:10084000944210D8A34210D20A4A15681D440A4B9C
:100850001C600A4B9847284638BD094B23F0070314
:10086000044A1360E7E70025F3E70025F1E700BF3E
:100870006D150800040B072008C30720BD160800EB
:10088000100B072040B14FF0400383F31188BFF3F2
:100890006F8FBFF34F8FFEE77047000010B504461F
:1008A000044B9847A46B044B9847B4FA84F0400972
:1008B00010BD00BFD90508001D06080070B504462C
:1008C0001646856B026C52B90368002B2AD140682A
:1008D000184B9847002363600135A56370BD6EB95E
:1008E0008068154B9847A368226C1344A360626824
:1008F000934219D32368A3600020EDE7C0680E4B34
:100900009847236C5B42E2681A44E26021688A429D
:1009100002D262681344E360022E07D145B1013D63
:100920000020D9E70020D7E70020D5E70020D3E753
:100930000020D1E7AD1B080089290800026C72B1C4
:1009400010B50346C4681444C4604068844224BFA0
:100950001868D8600846D968014B984710BD7047A1
:10096000892908002DE9F0410546204B984795F864
:10097000454064B2002C12DD6B6A83B105F1240797
:100980001B4EDFF8748004E0013C64B23CB16B6A3A
:100990002BB13846B0470028F6D0C047F4E7FF2314
:1009A00085F84530134B9847104B984795F84440CD
:1009B00064B2002C12DD2B6983B105F110070C4ED7
:1009C000DFF8348004E0013C64B23CB12B692BB108
:1009D0003846B0470028F6D0C047F4E7FF2385F833
:1009E0004430044B9847BDE8F08100BFD9050800AA
:1009F0008D1908001D060800C11A080038B530B36B
:100A000004460D461C4B98472268216CE36B03FBA0
:100A100001F3D01860600020A063A2605B1A134449
:100A2000E360FF2384F8443084F84530C5B9236976
:100A3000EBB104F11000114B9847C0B14FF0805258
:100A40000F4B1A60BFF34F8FBFF36F8F0FE04FF064
:100A5000400383F31188BFF36F8FBFF34F8FFEE71F
:100A600004F11000074DA84704F12400A847064BE5
:100A70009847012038BD00BFD90508008D1908002E
:100A800004ED00E0910408001D060800F8B540B927
:100A90004FF0400383F31188BFF36F8FBFF34F8F85
:100AA000FEE7064617460D4601FB00F050300A4BA4
:100AB0009847044668B11DB100F15003036000E09F
:100AC0002060E663256401212046044B984784F8A2
:100AD0004C702046F8BD00BF1D080800FD09080045
:100AE0002DE9F04F85B0019298B10446D1B1022BA7
:100AF00024D01E460F465B4B984758BB019B8BB3D7
:100B00004FF0400383F31188BFF36F8FBFF34F8F14
:100B1000FEE74FF0400383F31188BFF36F8FBFF3FD
:100B20004F8FFEE7026C002AE1D04FF0400383F3C1
:100B30001188BFF36F8FBFF34F8FFEE7E26B012A7F
:100B4000D7D04FF0400383F31188BFF36F8FBFF30B
:100B50004F8FFEE70025DFF83481DFF834A1DFF89E
:100B6000109130E00025F6E73246394620463E4BEC
:100B70009847636A93B104F124003C4B984738B11D
:100B80004FF080523A4B1A60BFF34F8FBFF36F8F15
:100B9000384B9847012005B0BDE8F08F0028F7D00A
:100BA0004FF08052324B1A60BFF34F8FBFF36F8FFD
:100BB000EEE7304B98470020EDE720462E4B984754
:100BC0002E4B98470125C047A26BE36B9A42CBD3CB
:100BD000022EC9D0019B002BEBD00DB902A8D04743
:100BE000244B9847264B9847C04794F844305BB253
:100BF000B3F1FF3F04BF002384F8443094F845303C
:100C00005BB2B3F1FF3F04BF002384F84530194BBA
:100C1000984701A902A81B4B9847E0B9C047D4F8F0
:100C200038B0E56B134B9847AB45C6D1019904F139
:100C30001000154B984720460F4B98470F4B98478D
:100C40000028BFD14FF08053C9F80030BFF34F8F59
:100C5000BFF36F8FB6E72046074B9847074B98477F
:100C6000002098E7CD1A0800BD0808008D1908007B
:100C700004ED00E01D06080065090800BD16080027
:100C80006D150800351A080011190800D90508006B
:100C90001D1A080038B5024600210120064B98476E
:100CA000044638B1002141600160C1600B460A462C
:100CB000024DA847204638BD8D0A0800E10A080009
:100CC0002DE9F843002837D0044600293DD0022BF7
:100CD00047D01F46904689462F4B9847EFF3118621
:100CE0004FF0400383F31188BFF36F8FBFF34F8F33
:100CF000A26BE36B9A4201D3022F44D194F8455082
:100D00006DB23A4649462046244B9847B5F1FF3F1D
:100D100033D1636A002B38D004F12400204B98476C
:100D2000002834D0B8F1000F33D00120C8F80000FB
:100D300086F31188BDE8F8834FF0400383F31188F0
:100D4000BFF36F8FBFF34F8FFEE7006C0028BED05C
:100D50004FF0400383F31188BFF36F8FBFF34F8FC2
:100D6000FEE7E06B0128B4D04FF0400383F3118815
:100D7000BFF36F8FBFF34F8FFEE76B1C5BB284F83E
:100D800045300120D4E70020D2E70120D0E7012040
:100D9000CEE70120CCE700BFC1070800BD0808006E
:100DA0008D1908002DE9F04784B0019280B1044606
:100DB000B9B10E46504B9847F8B9019B2BB34FF091
:100DC000400383F31188BFF36F8FBFF34F8FFEE7AC
:100DD0004FF0400383F31188BFF36F8FBFF34F8F42
:100DE000FEE7036C002BE4D04FF0400383F311883F
:100DF000BFF36F8FBFF34F8FFEE70027DFF824812B
:100E0000DFF824A1DFF8FC9029E00027F6E731465F
:100E100020463A4B9847013DA563236963B104F12D
:100E20001000374B984738B14FF08052354B1A605D
:100E3000BFF34F8FBFF36F8F334B9847012004B040
:100E4000BDE8F087304B98470020F8E702A8D0476C
:100E50000EE020462D4B98472D4B98470127C04761
:100E6000A56B002DD3D1019B002BEBD0002FEDD033
:100E7000254B9847274B9847C04794F844305BB2BE
:100E8000B3F1FF3F04BF002384F8443094F84530A9
:100E90005BB2B3F1FF3F04BF002384F845301A4B27
:100EA000984701A902A81C4B9847C8B920461B4B7C
:100EB00098470028CDD0019904F12400184B984799
:100EC0002046124B9847124B98470028C6D14FF046
:100ED0008053C9F80030BFF34F8FBFF36F8FBDE76A
:100EE00020460A4B98470A4B984720460B4B984799
:100EF0000028B3D00020A2E7CD1A08003D09080061
:100F00008D19080004ED00E01D06080065090800C1
:100F1000BD1608006D150800351A08009D08080068
:100F200011190800D90508001D1A08002DE9F04321
:100F300085B0019158B10446036C8BB14FF040036A
:100F400083F31188BFF36F8FBFF34F8FFEE74FF02E
:100F5000400383F31188BFF36F8FBFF34F8FFEE71A
:100F60005B4B984750B9019B83B14FF0400383F32B
:100F70001188BFF36F8FBFF34F8FFEE700252F4619
:100F8000544EDFF88491DFF8588148E000252F4661
:100F9000F6E7013BA363236813B94F4B98476060A2
:100FA000236963B104F110004C4B984738B14FF0FE
:100FB00080524B4B1A60BFF34F8FBFF36F8F494B7B
:100FC00098470125284605B0BDE8F08345B14FF0AC
:100FD000400383F31188BFF36F8FBFF34F8FFEE79A
:100FE000404B9847EEE702A8C84721E0B047606849
:100FF0003D4B984705463B4B984740E020463B4BCE
:1010000098473B4B984709E02046384B9847384B68
:1010100098472046374B9847002845D10127B047CD
:10102000A36B002BB5D1019B002BCFD0002FDAD0C2
:101030002C4B9847304B9847B04794F844305BB2FC
:10104000B3F1FF3F04BF002384F8443094F84530E7
:101050005BB2B3F1FF3F04BF002384F84530214B5E
:10106000984701A902A8254B98470028CCD12046D3
:10107000204B98470028C1D02368002BB6D0019997
:1010800004F124001E4B98472046184B9847184BF4
:1010900098470028C2D14FF08053C8F80030BFF302
:1010A0004F8FBFF36F8FB9E7002D8BD0094B984757
:1010B000636A53B1236B1968C1F105016068114B74
:1010C0009847084B984700257CE70021F6E700BFCA
:1010D000CD1A0800D9050800311D08008D19080037
:1010E00004ED00E01D060800ED1A0800650908007F
:1010F000BD1608009D0808006D150800351A080087
:1011000011190800691C08001D1A080010B40A4BC8
:101110001B684BB10123084C54F833202AB101332A
:10112000082BF9D110BC70470023034A42F8331052
:1011300002EBC3035860F5E704C5072070B5044609
:101140000D461646114B984794F844305BB2B3F104
:10115000FF3F04BF002384F8443094F845305BB26D
:10116000B3F1FF3F04BF002384F84530084B984794
:10117000A36B1BB12046074B984770BD32462946EA
:1011800004F12400044B9847F4E700BFD905080098
:101190001D0608006509080049190800084B1B686E
:1011A0001B683BB1064B1B68DB68DB685A68054B64
:1011B0001A6070474FF0FF32024B1A60704700BF51
:1011C00010C30720C0C3072080B5164DDFF86C8020
:1011D000154FDFF86C902B68BBB1144EC047FB680D
:1011E000DC68201DB047124A1368013B13602B686E
:1011F000013B2B600F4B9847206BDFF848A0D0478E
:101200002046D0472B68002BE8D10B4B1B68012BE5
:10121000E1D94FF08053C9F80030BFF34F8FBFF3CF
:101220006F8FD8E780C30720F4C30720F9040800B4
:101230007CC307201D06080018C30720D905080035
:1012400004ED00E08508080070B504460E461D4B0D
:101250001D681D4B186804301C4B984748B91A4B41
:101260001A681B490B68D06A0122824023EA0203F4
:101270000B60B4F1FF3F13D02C44134B1B685C6030
:10128000A54216D8134B18680F4B19680431124B3E
:101290009847124B1B689C423CBF104B1C6070BDB2
:1012A000002EE9D0084B196804310D480D4B9847C2
:1012B00070BD0D4B1868044B19680431064B9847F4
:1012C00070BD00BF08C407200CC30720F904080044
:1012D00090C3072010C30720C5040800C0C307201F
:1012E000E0C30720AD04080014C307202DE9F04F28
:1012F00083B083460D460193DDF834A09600304656
:10130000604B9847002800F08D80074660205D4BB9
:1013100098470446002800F0828007633246A521E2
:101320003846594B9847043E236B1E4426F0070667
:101330002B7884F834302B7863B12B4604F13402D7
:1013400005F11301587802F8010F13F8010F08B1E5
:101350008B42F7D1002784F847700C9D042D28BFDD
:101360000425E5622565676504F104084046DFF859
:101370006C91C84704F11800C8472461C5F1050500
:10138000A5616462A76584F85C70019A594630468D
:101390003E4B98472060BAF1000F01D0CAF80040D8
:1013A0003B4B98473B4A1368013313603A4B1B6829
:1013B000002B3AD0394B1B683BB9374B1B68DA6AB4
:1013C000E36A9A429CBF344B1C60354A1368013370
:1013D0001360A364E06A334A1168012383400B431E
:1013E000136000EB800041462F4B03EB80002F4B36
:1013F00098472F4B9847294B1B68002B3BD0264B17
:101400001B68DA6AE36A9A4239D24FF08052294B5C
:101410001A60BFF34F8FBFF36F8F01202CE0384667
:10142000254B98474FF0FF3026E01B4B1C6013689C
:10143000012BCAD11C4E3046204DA84706F114009E
:10144000A84706F12800A84706F13C00A84706F186
:101450005000A8471A4F3846A8471A4E3046A847AA
:101460001948A8471948A8471948A847194B1F60A9
:10147000194B1E60A9E7012003B0BDE8F08F0120E1
:10148000FAE700BF1D080800752A0800810508005A
:10149000D90508007CC307200CC30720DCC3072044
:1014A0008CC3072090C3072018C30720AD04080091
:1014B0001D06080004ED00E08508080091040800FE
:1014C00094C30720A8C30720C8C30720F4C307207C
:1014D000E0C3072010C3072014C30720A704080097
:1014E00010B582B0184B0193002300938222174954
:1014F0001748184CA047012804D0B0F1FF3F1AD07C
:1015000002B010BD144B98470128F6D14FF04003AC
:1015100083F31188BFF36F8FBFF34F8F4FF0FF320C
:101520000E4B1A6001220E4B1A6000220D4B1A60FE
:101530000D4B9847E4E74FF0400383F31188BFF366
:101540006F8FBFF34F8FFEE7BCC30720945708008F
:10155000C9110800ED120800091E0800C0C30720C9
:10156000DCC3072008C40720F1060800024A1368FC
:1015700001331360704700BF88C30720014B186810
:10158000704700BF08C407202DE9F0473D4B1B689A
:10159000002B69D13C4B1D6801351D60C5B93B4B23
:1015A0001B681B6843B14FF0400383F31188BFF3FE
:1015B0006F8FBFF34F8FFEE7344A1168344B1868C2
:1015C00010601960334A136801331360324B984737
:1015D000324B1B689D420CD20024314B1B68DB6AE6
:1015E00003EB83039B002F4AD358022B28BF01240F
:1015F0003FE00024DFF89490DFF8BC802A4F1FE022
:101600004FF0FF32254B1A60E7E7244A1360E4E706
:1016100006F11800C047F06A3A680123834013437B
:101620003B6000EB800051461E4B03EB80001F4BDC
:1016300098471B4B1B68F26ADB6A9A4228BF012459
:10164000D9F800301B68002BDAD0D9F80030DB68FD
:10165000DE6873689D42D8D306F1040A5046C0473D
:10166000B36A002BD4D1D6E7114A13680133136053
:101670000024104B1B68002B0CBF20460120BDE846
:10168000F08700BF88C3072008C4072010C30720C5
:1016900014C30720C4C307209D110800C0C307203E
:1016A0000CC3072018C3072090C30720AD0408000F
:1016B00084C307200CC40720F9040800354B1B68BD
:1016C00043B94FF0400383F31188BFF36F8FBFF32B
:1016D0004F8FFEE72DE9F0412F4B98472D4B1A68AD
:1016E000013A1A601B68002B50D12C4B1B682BB998
:1016F00000242B4B98472046BDE8F0810024294F59
:10170000294E2A4D3B6803B3FB68DC6804F11800DE
:10171000B04704F104084046B047E06A2A68012354
:10172000834013432B6000EB80004146204B03EBCA
:101730008000204B9847204B1B68E26ADB6A9A4284
:10174000E0D301221D4B1A60DCE70CB11C4B98471B
:101750001C4B1C686CB11C4F184E012501E0013C6C
:1017600004D0B8470028FAD03560F8E70022154BBE
:101770001A60124B1B685BB14FF08052134B1A601A
:10178000BFF34F8FBFF36F8F0124B2E70024B0E7A0
:101790000024AEE788C30720D90508007CC30720D2
:1017A0001D060800C8C30720F904080090C30720DD
:1017B00018C30720AD0408000CC307200CC4072081
:1017C0009D11080084C307208915080004ED00E07E
:1017D00038B550B1054689B94FF0400383F31188FD
:1017E000BFF36F8FBFF34F8FFEE74FF0400383F3DC
:1017F0001188BFF36F8FBFF34F8FFEE7194B1B6844
:1018000043B14FF0400383F31188BFF36F8FBFF3F1
:101810004F8FFEE70C46144B9847144B18682A6804
:101820001444904214D2A24216D92C60A04203D292
:101830000021201A0E4B98470E4B984780B94FF065
:1018400080520D4B1A60BFF34F8FBFF36F8F38BDBF
:10185000A24203D8A04201D32C60EDE72C60E7E759
:1018600038BD00BF88C307206D15080008C40720D5
:1018700049120800BD16080004ED00E01F4B1B686C
:10188000C3B900221E4B1A601E4B1B68B3FA83F3C8
:10189000DBB2C3F11F0303EB830292001A498A589B
:1018A00062B94FF0400383F31188BFF36F8FBFF32A
:1018B0004F8FFEE70122124B1A60704710B4124A94
:1018C0009900C81802EB80004468646844601944B9
:1018D0000246083294420AD003EB83030A4A02EB21
:1018E00083035B68DA68094B1A6010BC7047606854
:1018F000054A02EB81025060EEE700BF88C3072073
:101900000CC4072090C3072018C307200CC307206E
:1019100040B94FF0400383F31188BFF36F8FBFF3DB
:101920004F8FFEE710B50C46044B19681831044B75
:10193000984701212046034B984710BD0CC3072050
:10194000C50408004912080038B578B114460D46A0
:101950000B4B196818310B4B9847002C21460CBFD4
:1019600028464FF0FF30084B984738BD4FF04003F2
:1019700083F31188BFF36F8FBFF34F8FFEE700BF74
:101980000CC30720AD0408004912080038B5C3682D
:10199000DC682CB304F118052846184B9847184BFF
:1019A0001B6833BB251D2846144B9847E06A154A2F
:1019B0001168012383400B43136000EB800029462C
:1019C000114B03EB8000114B9847114B1B68E26AE7
:1019D000DB6A9A4283BF01200E4B1860002038BD9D
:1019E0004FF0400383F31188BFF36F8FBFF34F8F26
:1019F000FEE729460848054B9847E6E7F904080042
:101A000088C3072090C3072018C30720AD0408002F
:101A10000CC307200CC40720C8C30720034B1B6856
:101A20000360034B1B684360704700BFC4C30720BB
:101A300008C40720E8B170B5054619B30C461B4B26
:101A400098471B4B1A6869682368B3F1FF3F29D098
:101A5000184800682E68864201D08A4224D2521A61
:101A60009A4218D3002323600124134B9847204641
:101A700070BD4FF0400383F31188BFF36F8FBFF346
:101A80004F8FFEE74FF0400383F31188BFF36F8F52
:101A9000BFF34F8FFEE79B1A23602846074B9847FA
:101AA0000024E2E70024E0E70124DEE7D90508008E
:101AB00008C40720C4C307201D0608001D1A08001B
:101AC0000122014B1A6070470CC40720054B1B68AC
:101AD00033B1054B1B68002B0CBF02200020704760
:101AE00001207047DCC3072088C30720002850D09E
:101AF00038B50446C26A28490968C96A8A423FD291
:101B00008169002905DB24490968C96AC1F1050119
:101B1000816102EB8202214901EB820261699142FB
:101B200005D01D4A1268D26AE262012038BD251D27
:101B300028461B4B984770B9E26A02EB82039B0070
:101B40001649CB583BB917480368012101FA02F244
:101B500023EA02020260104B1B68D86AE062114A55
:101B60001168012404FA00F30B43136000EB8000BA
:101B700029460A4B03EB80000B4B9847204638BDA3
:101B8000054A1268006DD36A98422CBF00200120DC
:101B900038BD0020704700BF0CC3072018C30720C2
:101BA000F904080090C30720AD04080000284AD0BB
:101BB00038B50446274A1268904208D04FF04003D7
:101BC00083F31188BFF36F8FBFF34F8FFEE7426D32
:101BD00042B94FF0400383F31188BFF36F8FBFF317
:101BE0004F8FFEE7013A4265C06A216D88422CD0D2
:101BF000002A2CD1251D2846174B984768B9E16A61
:101C000001EB81039B00154AD35833B9144803688C
:101C100001228A4023EA02030360206DE062C0F1E2
:101C20000503A3610E4A1168012404FA00F30B4373
:101C3000136000EB80002946084B03EB8000094B42
:101C40009847204638BD00207047002038BD00204E
:101C500038BD00BF0CC30720F904080018C30720D3
:101C600090C30720AD040800002855D038B50446BD
:101C7000406D40B94FF0400383F31188BFF36F8F7D
:101C8000BFF34F8FFEE7226D8A4238BF0A46E16AF2
:101C9000914201D0012800D038BD2048006884421C
:101CA00008D14FF0400383F31188BFF36F8FBFF368
:101CB0004F8FFEE7E262A0690028A4BFC2F10502CF
:101CC000A26101EB8101164A02EB810162698A423D
:101CD000E2D1251D2846134B984768B9E16A01EB0C
:101CE00081039B000E4AD35833B90F480368012281
:101CF0008A4023EA02030360E06A0B4A1168012369
:101D000083400B43136000EB80002946044B03EB38
:101D10008000064B9847BFE7704700BF0CC3072001
:101D200018C30720F904080090C30720AD04080079
:101D3000054B1B6823B1044B1A68536D013353657F
:101D4000014B1868704700BF0CC3072008B54160FD
:101D5000006191420CD8D21A83699A4201D30120C2
:101D600008BD011D094B1868094B9847002008BDA4
:101D70009A4201D2994206D2011D064B1868044BC3
:101D80009847002008BD012008BD00BF14C40720EB
:101D9000C504080010C4072070B5104B9847104BBD
:101DA0001B6813B10F4B984770BD0F4D28460F4E5F
:101DB000B0470F4C2046B0470E4B1D600E4B1C60C9
:101DC0000022102105200D4B9847054B1860002874
:101DD000E8D00B490B4B9847E4E700BFD905080052
:101DE00044C407201D06080018C4072091040800F9
:101DF0002CC4072010C4072014C407208D0A080033
:101E00009C5708000D11080010B582B00D4B984783
:101E10000D4B1B686BB10D4B019304230093002302
:101E20004FF482720A490B480B4CA04708B102B02C
:101E300010BD4FF0400383F31188BFF36F8FBFF3E2
:101E40004F8FFEE7991D080044C4072048C40720AF
:101E5000A45708007D1F0800ED120800D8B130B566
:101E600085B015460446144A106810B31A4600910E
:101E700001950294052917DC104B984702284FF072
:101E800000030CBF089A1A4669460B4800680C4CC0
:101E9000A04705B030BD4FF0400383F31188BFF376
:101EA0006F8FBFF34F8FFEE700236946054CA047B5
:101EB000EFE70020EDE700BF44C40720CD1A08007B
:101EC000E10A0800C10C08002DE9F04782B0804605
:101ED000234B98470746234B1B68984219D300238E
:101EE000C8F800301F4B1F60384602B0BDE8F087CD
:101EF000002100910B46524620461B4CA04750B98A
:101F00004FF0400383F31188BFF36F8FBFF34F8F00
:101F1000FEE7164D164E2B681A68C2B1DB68D3F87F
:101F200000A0DC6804F104094846B047636A204613
:101F30009847E369012BEED1A36953449A45D7D260
:101F400063602461494628680A4B9847E3E70A4AD8
:101F500010680649086013600123C8F80030C1E723
:101F60007D15080040C407205D1E080010C407202E
:101F7000F9040800C504080014C407202DE9F0473F
:101F800088B0704E704FDFF8E891DFF8E881336871
:101F90001A6872B1DB681C686C4B984704A86C4BDC
:101FA00098470546049B002B52D1A04223D2002221
:101FB0000FE0664B984704A8654B98470546049B7D
:101FC000002B45D1634B1B681A68B2FA82F25209A2
:101FD0000024611B604B1868604B9847B84738B9BC
:101FE0004FF08053C9F80030BFF34F8FBFF36F8FAE
:101FF000594D5B4C35E0B8473368DB68D3F80CA02B
:102000000AF10400C047DAF81C30012B04D0DAF8DA
:10201000243050469847EBE7DAF8181023462A4652
:10202000214450464F4DA8470028F0D00021009190
:102030000B46224650464C4CA0470028E7D14FF0B3
:10204000400383F31188BFF36F8FBFF34F8FFEE719
:10205000B847CDE707990698059B9847049B002B46
:1020600008DA002204A92868A04700288FD0049B22
:10207000002BEFDBDDF818A0DAF8143013B10AF109
:102080000400C04703A8324B9847049B092BE8D8AB
:1020900001A252F823F000BFC1200800C1200800AF
:1020A000C120080063200800132108003B2108001C
:1020B000C1200800C1200800632008001321080087
:1020C000059CDAF818102346024621445046254C58
:1020D000A04700288DD0DAF8243050469847DAF827
:1020E0001C30012B85D1DAF81820002100910B4615
:1020F0000598024450461C4CA04700287FF479AF55
:102100004FF0400383F31188BFF36F8FBFF34F8FFE
:10211000FEE70599CAF8181031B10346024601449A
:102120005046104CA04764E74FF0400383F31188FA
:10213000BFF36F8FBFF34F8FFEE750460B4B9847AF
:1021400057E700BF10C40720BD1608006D15080032
:10215000C91E080014C4072044C407203D1108000C
:10216000A50D08004D1D08005D1E0800850808002B
:1021700004ED00E0F904080010B50E480E4B984736
:102180003E2100200D4B98470D4CA0470028FCD065
:102190000C4B98470C4A0D4B9A620D4CA0470028F7
:1021A000FCD010200B4B98470B4B98470148024B33
:1021B000984710BD00BD0105A50007206D2508004A
:1021C000C1250800D1250800013F0D2000060E4062
:1021D000E125080009250800AD26080010B54FF4D8
:1021E0000042164B5A600B20154CA0470C20A0470C
:1021F0000D20A0470E20A0474FF060513B20114C0E
:10220000A0474FF060515520A0474FF06051562035
:10221000A0470D496820A0470C495C20A0470C4A04
:102220004FF440710B480C4B98474FF000612B2046
:10223000A0474FF000612A20A04710BD501A0E4061
:10224000F1250800FD22080079000028010000287F
:1022500001000008000E0E40CD2308004264B1F1D9
:10226000805F16D00BD849B1B1F1006F05D1036F73
:10227000016F0B4023EA0203036742607047B1F12C
:10228000405FFBD0B1F1605FF8D0B1F1205FF4D1D5
:102290007047036F13430367EFE7416412F0010FC8
:1022A00014BF4166016612F00A0F14BF0162416259
:1022B00012F0020F07D112F0080F18BFC0F88410F7
:1022C000416101607047C0F88010F9E710B4019CCB
:1022D000416444B9016643B1016542B9416301619A
:1022E000016010BC70474166F5E74165F5E70163A1
:1022F000F5E7C06C7047806C7047000070B582B025
:102300000D46430903F5001303F207735C0201F065
:10231000F043B3F1205F31D016D8B3F1006F1BD07A
:10232000B3F1805F16D100F01F00012686403246CF
:102330004FF080512046224B984715F0010F14BFF3
:1023400066662666012017E0B3F1405F21D0B3F145
:10235000605F1ED000200FE000F01F0001268640C5
:1023600032464FF000612046154B984715F0010F9B
:1023700014BF66662666012002B070BD00F01F0122
:1023800001262A4606FA01F120460E4B98473046B0
:10239000F2E705F0605200F01F01012605EA06038E
:1023A0000093C5F38003B2F1605F14BF00220122E5
:1023B00006FA01F12046044CA0473046DCE700BF96
:1023C0005D2208009B220800CD22080070B582B073
:1023D00005460E46144602F0F043B3F1205F27D0C5
:1023E00011D8B3F1006F16D0B3F1805F11D10A4656
:1023F0004FF08051194B984714F0010F14BF6E66CF
:102400002E66012012E0B3F1405F15D0B3F1605F9A
:1024100012D000200AE00A464FF000610F4B9847A7
:1024200014F0010F14BF6E662E66012002B070BD5D
:102430000B4B98470120F9E704F0605204F00103C8
:102440000093C4F38003B2F1605F14BF0022012245
:1024500031462846034CA0470120E7E75D220800EB
:102460009B220800CD2208002DE9F0410446884651
:102470000E4B9847054620460D4B9847054013D014
:102480000C4C04F1600603E0B4420DD010345DB191
:1024900020684045F8D161682942F5D0E368984743
:1024A000636825EA0305EFE7BDE8F081F322080041
:1024B000F72208004CC4072008B50B210148024B45
:1024C000984708BD000E0E406924080008B50C218D
:1024D0000148024B984708BD00100E4069240800CF
:1024E00008B50D210148024B984708BD00120E4067
:1024F0006924080008B50E210148024B984708BD21
:1025000000140E4069240800174A136B23F070036F
:1025100018431063936E13F0080F0AD14FF4006351
:1025200011498A6E12F0080F03D1013BF9D1012045
:1025300070470D4A136B23F0030343F00203136348
:10254000936E13F0080F0AD14FF4006306498A6EA8
:1025500012F0080F05D1013BF9D10120704700208E
:1025600070470020704700BF00060E40C8B9114AEE
:10257000136A090289B223F45C1323F0030343F4C2
:102580005C1343F001030B431362936E13F0010FCE
:10259000FBD0084A136A43F09B7343F48033136201
:1025A000704704490B6A044A1A40044B13430B62F8
:1025B000704700BF00060E40FCFFC8FE0200370156
:1025C000024B986E00F48030704700BF00060E404A
:1025D0004FF00052014B9A62704700BF00060E4058
:1025E000024B986E00F00200704700BF00060E40DC
:1025F00000F07F00054BC3F80C01D3F80C2142F02A
:102600001022C3F80C210020704700BF00060E40C6
:10261000FEE7000008B51C4B1C4A9A4210D01C4B28
:10262000194A9A420CD2013B9B1A23F0030304334C
:102630001344164951F8040B42F8040B9A42F9D19D
:10264000144B154A9A420AD2013B9B1A23F003030A
:1026500004331344002142F8041B9342FBD10F4B77
:1026600023F0604222F07F020D498A6003F160434B
:10267000B3F5801F03D28B6843F000538B60094B86
:102680009847094B9847FEE700000720805908004B
:10269000E00A07206CC50720E00A072000000800B8
:1026A00000ED00E011290800D92808003D4B1B6B04
:1026B00003F00303032B0ED8DFE803F0021C3838C5
:1026C000394B5B6913F0800F14BF4FF400424FF495
:1026D000FA42364B1A60334B1B6B03F07003702BBE
:1026E00057D0304B1A6B3149C2F302120B68D340FA
:1026F0000B6070472B4B1B6A13F0807F03D02C4A72
:102700002A4B1A60E7E72B4A284B1A60254B1B6AB5
:1027100003F07003102B05D0202BDCD1244A234B6F
:102720001A60D8E7244A214B1A60D4E71D4B1B6A74
:1027300013F0807F0CD01E4A1C4B1A60194B1B6B88
:1027400003F00303022B16D01C4A184B1A60C2E791
:10275000184A164B1A60134B1B6A03F07003102BB8
:1027600005D0202BEAD1124A104B1A60E6E7124A34
:102770000E4B1A60E2E70B4A916A926A0B48C1F36A
:102780000A41036801FB0333D2B2B3FBF2F30360E7
:10279000A1E7064A13680A49A1FB03135B0813600B
:1027A000704700BF00060E40101A0E40300107208F
:1027B000001BB70000093D0000127A00001C4E0EFD
:1027C000ABAAAAAA0A4B1B6853B1094B1B681A187B
:1027D0000849914208DB1046054A106018467047C8
:1027E000054A034B1A60F0E74FF0FF30704700BF17
:1027F000BCC40720FC7F082070E507204FF0FF30A5
:1028000070474FF400534B60002070470120704721
:102810000020704700B585B0084B98470390084BDF
:1028200093E8030001908DF80810064D064C01A8AE
:10283000A847012103A8A047F9E700BF7D150800BC
:10284000C457080061030800D117080010B582B012
:102850000023019301220092FA2203490348044C09
:10286000A04702B010BD00BFAC57080015280800F3
:10287000ED12080000B585B0094B98470390094B4D
:1028800093E803000190ADF80810090C8DF80A10C8
:10289000054D064C01A8A847012103A8A047F9E768
:1028A0007D150800E457080061030800D1170800EF
:1028B00010B582B00023019301220092FA2203494D
:1028C0000348044CA04702B010BD00BFCC5708001D
:1028D00075280800ED12080008B5074B9847074B0C
:1028E0009847074B9847074B9847074B9847074B24
:1028F0009847012008BD00BF79210800DD210800AC
:10290000AD0308004D280800B1280800E1140800B4
:1029100070B50F4E0F4D761BB61018BF002405D0B2
:10292000013455F8043B9847A642F9D10A4E0B4DA5
:1029300003F010F8761BB61018BF002406D001343F
:1029400055F8043B9847A642F9D170BD70BD00BF51
:10295000605908006059080068590800605908006B
:102960000FB410B5074B82B004AC54F8042B1868B0
:1029700023468168019400F009FA02B0BDE81040D6
:1029800004B0704734010720844641EA000313F085
:10299000030349D1403A23D30B6803604B6843607B
:1029A0008B688360CB68C3600B6903614B694361CB
:1029B0008B698361CB69C3610B6A03624B6A4362B3
:1029C0008B6A8362CB6AC3620B6B03634B6B43639B
:1029D0008B6B8363CB6BC36340304031403ADBD2B7
:1029E00030320BD30B6803604B6843608B688360A5
:1029F000CB68C36010301031103AF3D20C3205D3DB
:102A000051F8043B40F8043B043AF9D2043208D0B0
:102A1000D2071CBF11F8013B00F8013B01D30B8822
:102A200003806046704700BF082A13D38B07B1D0DC
:102A300010F00303AED0C3F10403D21ADB071CBFAE
:102A400011F8013B00F8013BA4D331F8023B20F818
:102A5000023B9FE7043AD9D3013A11F8013B00F851
:102A6000013BF9D20B7803704B7843708B788370FD
:102A70006046704770B4860746D0541E002A41D085
:102A8000CAB2034602E014F1FF343BD303F8012B32
:102A90009D07F8D1032C2ED9CDB245EA05250F2C80
:102AA00045EA054519D9264603F11002103E0F2EBE
:102AB00042F8105C42F80C5C42F8085C42F8045C96
:102AC00002F11002F2D8A4F1100222F00F0204F079
:102AD0000F041032032C13440DD91E462246043A2B
:102AE000032A46F8045BFAD8221F22F003020432BC
:102AF000134404F003042CB1C9B21C4403F8011BB5
:102B00009C42FBD170BC704714460346C2E700BF2D
:102B100000290CBF022200224FF4806300F000B8AD
:102B20002DE9F043614D83B02D6804460F46904671
:102B30001E4615B1AB6B002B64D0B8F1020F06D066
:102B4000B8F1010F00F29F80002EC0F29C80636EEE
:102B5000D80734D52146284601F0B0F8216B41B1A1
:102B600004F14003994202D0284601F025FA0023DF
:102B700023630022B4F90C30A26162601A063AD4D1
:102B800023F44A6323F00303B8F1020FA3811DD09D
:102B900001AB6A462146284601F0ACFCA3891843E4
:102BA000A081002E32D1009E304601F01BFD074669
:102BB00000286BD0A38943F08003A38128E0A38978
:102BC0009905C7D4A06D01F091FCC3E7002500264C
:102BD0000120616E04F1430243F00203A660CE07B8
:102BE000A38160612260226101D498053ED5284608
:102BF00003B0BDE8F0832169284601F0DDF9B4F99E
:102C00000C30BDE7284601F0B1F896E7002FCBD095
:102C1000AB6B002B33D0009BB4F90C209E421CBF41
:102C200042F40062A281B8F1010F04BF42F0010238
:102C3000A28192B212F008032760276166610ED06C
:102C4000D1071AD50023656E764215F00105A661FD
:102C5000A36009D00025284603B0BDE8F083A36037
:102C6000656E15F00105F5D19305C0D4A06D01F096
:102C70003FFC284603B0BDE8F083A660F0E7284695
:102C800001F074F8C7E74FF0FF35B0E7DDF80090CA
:102C9000B14504D0484601F0A5FC074620B9B4F977
:102CA0000C304FF0FF3592E74E4683E734010720A2
:102CB00020F0030110F00300C0F1000051F8043BC4
:102CC00000F1040C4FEACC0C6FF000021CBF22FA9A
:102CD0000CF213434FF0010C4CEA0C2C4CEA0C4C58
:102CE000A3EB0C0222EA030212EACC1204BF51F851
:102CF000043B0430F4D0C2F1000102EA0102B2FA4E
:102D000082F2C2F11F0200EBD20070472DE9F84FAA
:102D10004B6E93469C042FD59368126853B30E46AE
:102D2000074602F1080919E920045FEA9A0817D05A
:102D30000024043D01E0A04510D0324655F8041FA0
:102D4000384601F0B5F8431C04F10104F3D1002327
:102D5000CBF80830CBF80430BDE8F88FDBF808304A
:102D60002AF0030AA3EB0A03CBF8083009F108099B
:102D7000002BD8D10020EAE701F004FA0023CBF8B9
:102D80000830CBF80430BDE8F88F00BF2DE9F04FD4
:102D9000ADB01D468B4690460793069018B1836BE5
:102DA000002B00F0F380DBF86430BBF90C00DF0788
:102DB00081B202D48E0540F1FC808C040AD4DBF889
:102DC000643040F4005123F40053ABF80C10CBF8FE
:102DD000643089B2080740F1B380DBF81030002B73
:102DE00000F0AE8001F01A030A2B00F0B58000233A
:102DF0000DF1700AD1460B93039311931093CDF804
:102E00003CA0CDF810B098F800304446FBB1252B1B
:102E100002D11CE0252B03D014F8013F002BF9D17F
:102E2000A4EB08059DB1109B119A01332A44072B8E
:102E3000C9F80080C9F80450119210937ADD002A75
:102E400040F0B584D146039B10922B440393237822
:102E5000002B00F0E58300204FF0000304F101088F
:102E60008DF8373062780646054603464FF0FF344A
:102E700008F10108A2F12001582900F2D982DFE807
:102E800011F02802D702D7023002D702D702D702A8
:102E9000D702D702D702A0008802D702A800B80242
:102EA000D702A601AB01AB01AB01AB01AB01AB019A
:102EB000AB01AB01AB01D702D702D702D702D702D1
:102EC000D702D702D702D702D702B901D702D70259
:102ED000D702D702D702D702D702D702D702D7022A
:102EE0009E01D702D702D702D702D702A201D7028A
:102EF000D7025A02D702D702D702D702D702D70287
:102F0000D702D702D702D70261022202D702D70224
:102F1000D70276022202D702D7027B02D702FC0137
:102F200089011002D202D7029502D702AD00D70262
:102F3000D702350209F10809039B2B44039386E766
:102F40005946069800F0AAFD18BBBBF80C1001F01A
:102F50001A030A2B7FF44BAFBBF90E30002BFFF6A0
:102F600046AFDBF86430DB0705D48F0503D4DBF80C
:102F7000580001F0BDFA2B4642465946069800F02B
:102F800049FD039003982DB0BDE8F08F00F0EEFEF0
:102F900009E7DBF86430D90704D4BBF80C309A0594
:102FA00040F1AE844FF0FF33039303982DB0BDE89A
:102FB000F08FDBF8580001F099FABBF90C0081B2F0
:102FC000FBE607990A460D680432002D079202DAE3
:102FD0006D4243F0040398F8002049E708959E06E7
:102FE00000F15A840799DD060A4600F1EF8358067E
:102FF00040F1EC83002701220E88043107914FF045
:10300000000100258DF83710611C00F0178123F0B6
:103010008001029156EA070140F01581002C40F032
:103020005B83002A40F0B68313F00103059300F0A0
:10303000558430230DF1B00B0BF8413D059BA342A5
:10304000B8BF234601930DB101330193029B13F0E6
:103050000203099302D0019B02330193029B13F0F8
:1030600084030A9340F01582089B019A9D1A002D53
:1030700040F30F82102D40F38484109BCE4610271E
:10308000A146119AC54E1946069C07E001F1020CB3
:1030900001460EF1080E103D102D11DD481C1032B6
:1030A000072811928EE8C0001090EFDD002A40F052
:1030B000D981103D102D11464FF0010CD646EDDCA4
:1030C0004C466146F1462A4407291192C9F800602E
:1030D000C9F80450109100F3EB829DF8375009F1C4
:1030E0000809481C002D40F0DC81099B002B00F0F2
:1030F000F68102210EAB0A44072811921090C9F8FC
:103100000410C9F8003040F3E681002A40F09583AE
:103110000A9B0120802B1146D14640F0E481089B98
:10312000019D5E1B002E40F3DE81102E40F33C8497
:10313000CC461027A1469A4D069C07E001F1020EED
:1031400001460CF1080C103E102E11DD481C103207
:10315000072811928CE8A0001090EFDD002A40F0C3
:103160009B82103E102E4FF0010E1146D446EDDC2E
:103170004C46E1463244BEF1070F119289E86000E7
:10318000CDF840E000F3668309F108090EF1010073
:103190007146A8E1089513F0200240F0898313F0EE
:1031A000100140F0198313F0400200F015830798D6
:1031B0000A46014604310688002707911FE7089553
:1031C00043F01003E7E7089543F0100307E743F0E7
:1031D000800398F800204BE60025A2F1300118F892
:1031E000012B05EB850501EB4505A2F1300109290D
:1031F000F5D93FE60895002840F0028443F010031B
:103200009E0600F13D830799DD060A4600F1F08233
:10321000580640F1ED82B1F900600432F7173046EC
:1032200039460792002871F10002C0F25A83611CEE
:103230009DF837504FF001027FF4E9AE56EA0701DE
:1032400000F04B820293012A00F08A82022A40F0A9
:103250005A82D3460B98330943EA0773390906F0BB
:103260000F020F461E46835C0BF8013D56EA07032A
:10327000F1D1AAEB0B030593E0E6002840F0BD83F3
:10328000990600F15983DA0600F1E5805B0640F10A
:10329000E280079A136804320792BDF80C201A8066
:1032A000B1E5782230210895079D8DF839202A1D37
:1032B00007923C4A2E680B9243F002038DF83810B7
:1032C000002702229BE60895002899D08DF83760E8
:1032D00096E798F80020002E7FF4CAAD0120202642
:1032E000C6E543F0010398F80020C1E508950028E1
:1032F00040F080832B490B919F0600F1E5820798EF
:10330000DE06014600F16F825D0640F16C82002707
:10331000043106880791D80740F1208256EA070158
:1033200000F01C8230218DF8392043F002038DF823
:103330003810022263E60895002840F055831A49A8
:103340000B91D9E7012207981146019202684FF0CC
:1033500000048DF848200246043208958DF8374065
:10336000059107920DF1480B029300246EE643F09D
:10337000400398F800207BE598F800206C2A03BFF2
:1033800098F8012043F0200308F1010843F01003EE
:103390006EE598F8002001202B2669E520580800EA
:1033A0003058080004580800F05708004FF0000299
:1033B00007990895D1F800B08DF837200D1DBBF1A5
:1033C000000F00F0E482671C00F0C3822246002157
:1033D0005846019301F0C6FB019B002800F0E882EB
:1033E000A0EB0B020795059202939DF8375000243D
:1033F00024E698F8002008F101072A2A00F0E98263
:10340000A2F130010929B8464FF000043FF632AD71
:1034100018F8012B04EB840401EB4404A2F1300101
:103420000929F5D926E543F0200398F800201FE587
:103430000895002840F0DB82002A00F0F18001218D
:103440008DF848204FF0000201918DF8372005914A
:103450000DF1480B88E7079A136804320792039A24
:103460001A60D0E40FAA04992046FFF74FFC002809
:1034700040F043811099D646119A01F1010C0AE6F9
:103480000FAA04990698FFF741FC002840F0358107
:10349000D14610999DF83750119A481C002D3FF4E1
:1034A00024AE01210DF137050A440728119210902E
:1034B000C9F80410C9F8005040F30981002A40F00F
:1034C000AF81099B002B3FF423AE02220846D14670
:1034D0000EAB1D921C93014609F1080901300A9BAD
:1034E000802B3FF41CAE059BE41A002C2FDD102C22
:1034F00040F32082CE461026B24D069FDDF8109094
:1035000006E0881C19460EF1080E103C102C10DD48
:103510004B1C1032072B11928EE860001093F0DDE7
:10352000002A65D1103C102C4FF001001146D64600
:10353000EEDCF146224407281192C9F80050C9F880
:103540000440109000F3858009F1080901300599C5
:1035500007280A441192C9F800B0C9F80410109065
:1035600040F38280002A40F01881029B1092580795
:1035700035D5089B01995C1A002C40F3E780D146B1
:10358000102C40F30D82102510998F4E069FDDF808
:1035900010B006E0881C194609F10809103C102CEF
:1035A00011DD4B1C1032072B1192C9F80060C9F8CD
:1035B00004501093EEDD42BB103C102C4FF0010084
:1035C0001146D146EDDC224407281192C9F800606B
:1035D000C9F80440109051DD002A40F09A81039B05
:1035E000089A01998A42ACBF9B185B1803934EE07E
:1035F0000FAA49463846FFF789FB002840F03E8174
:103600001099D646119A481C7FE70FAA59463846AA
:10361000FFF77CFB60B91099D146119A481CBDE7B1
:10362000119BDDF810B0002B40F0CA8100231093ED
:10363000DBF8643013F0010FBBF80C3002D19A05AF
:1036400040F1DD805B063FF5ADAC03982DB0BDE8E1
:10365000F08F002A40F005810123D146059ACDF86C
:1036600070B01D921192109309F10809029B59073D
:1036700004D5089B01995C1A002C81DC039B0899F6
:1036800001988142ACBF5B181B18039372BB0023E7
:10369000D1461093FFF7B7BB0FAA04992046FFF756
:1036A00035FB50BB1099D446119A01F1010E4AE541
:1036B000002A7FF4E5AE9DF83710002900F01A814A
:1036C0000122D14610460DF137011D921C91014691
:1036D00009F10809013008E5029B012A00F09780F2
:1036E000022A0DD1029300260027B2E50FAA049901
:1036F0000698FFF70BFB0028C9D0DDF810B097E75C
:10370000002600270293514600E05946F20842EA9B
:103710004772F80806F0070307461646303356EAA4
:10372000070201F8013C01F1FF3BEED1029AD607F6
:103730007FF59FAD302B3FF49CAD302302390BF861
:10374000013CAAEB010305938B4677E4039B089A9F
:103750008A42ACBF9B185B18039398E702224EE4A1
:10376000002F08BF0A2E51D3D346304639460A22CD
:10377000002301F085FE30320BF8012D304639462A
:1037800000230A2201F07CFE06460F4656EA070394
:10379000EBD16EE50594D34650E40FAA0499069840
:1037A000FFF7B4FA0028A8D1D146119A5EE70FAA14
:1037B00004990698FFF7AAFA00289ED1D146FFF790
:1037C000BBBB00BF30580800205808000431166801
:1037D00000270122079112E40798002701460431CF
:1037E000066807910BE40E6804310791002792E503
:1037F00016680432F71707923046394612E5DBF8AF
:10380000580000F075FEBBF80C301BE7029B0293DA
:1038100001230DF1B00B30360BF8416D05930DE42B
:103820000FAA04990698FFF771FA00287FF465AF94
:103830001099D146119A481C57E40FAA049906988A
:10384000FFF764FA00287FF458AF1099D146119A17
:10385000481C44E6002A40F0878001201146D146EA
:1038600041E60FAA04990698FFF750FA00287FF462
:1038700044AF1098D146119A013068E6CB46D7E69E
:10388000079D073525F0070505F10802D5E9000178
:10389000079206460F46C5E4079D073525F0070247
:1038A00002F10801D2E9006707910122FFF7A7BBE7
:1038B000079D073525F0070202F10801D2E90067EC
:1038C00007910022FFF79BBB079D073525F00701F5
:1038D00001F108000790D1E900671CE5D346FFF726
:1038E000ADBB2D25764267EB47078DF83750012297
:1038F000FFF78ABB099BB3B911460120D146F2E517
:10390000DBF8580000F0F4FD4FF0FF330393FFF7AE
:103910004CBB0FAA04990698FFF7F8F900287FF42A
:10392000ECAE119AAAE602220EAB1D921C93012066
:10393000D146D0E5344DFDE5079A1346043307938D
:10394000039B1168DD171A462B46C1E90023FFF7D8
:103950005ABA584607950293FFF7AAF90024059032
:103960009DF83750FFF76ABB0FAA04990698FFF736
:10397000CDF900287FF4C1AE1099D146119A481CA8
:10398000B1E51099119A0131204EFFF79CBB062C2E
:1039900028BF0624079505940194DFF874B0E3E48A
:1039A00010981A4E01300EE68646174DFFF7E2BB1F
:1039B00005940795029304469DF83750FFF73EBBE8
:1039C00006980FAA5946FFF7A1F900283FF42EAE3A
:1039D0002EE6079998F801200C68043144EAE47453
:1039E000B8460791FFF744BA8DF83760A7E48DF821
:1039F000376021E58DF837607CE48DF837603FE46F
:103A00008DF83760FFF7FABB3058080020580800DF
:103A1000185808002DE9F0410C464FF0000E4FF405
:103A20008065064617469846626EE3898989ADF53A
:103A30008D6D21F002011992ADF80E30E269636AD2
:103A4000ADF80C1016A81AA9CDF818E00792099342
:103A5000009104910295059500F044FD43463A46D5
:103A600069463046FFF792F9051E07DB3046694686
:103A700000F024F9002818BF4FF0FF35BDF80C30D6
:103A80005B0603D5A38943F04003A381169800F099
:103A90002BFD28460DF58D6DBDE8F08138B5304B16
:103AA000054618680C4610B1836B002B38D0B4F96A
:103AB0000C2093B218070CD52069A8B113F00102AD
:103AC0001ED000226369A2605B42A361F0B10020B6
:103AD00038BDD9063BD5580725D4206942F00803E4
:103AE000A3819BB20028E9D103F42072B2F5007FD4
:103AF000E4D02846214600F02BFDA3892069DDE7AC
:103B0000990758BF6269A2600028E0D1B4F90C306F
:103B10001A06DDD543F04003A3814FF0FF3038BDD6
:103B200000F024F9C3E7216B51B104F1400399423D
:103B300004D0284600F040FAB4F90C200023236397
:103B40000023206922F0240284E80900C6E7092343
:103B500042F040022B604FF0FF30A28138BD00BF21
:103B600034010720024B13B1024800F005B870473A
:103B700000000000E53D0800002301461A461846F3
:103B800001F056BBB1F90C302DE9F0419AB20D4667
:103B9000110780463AD46A6843F40063002AAB8177
:103BA00070DDAC6A002C4AD000229BB2D8F80060CD
:103BB000C8F8002013F4805268D02A6D5F0705D53D
:103BC00069682B6B521A0BB1EB6BD21A0023E969AF
:103BD0004046A047441C3DD00021B5F90C302A696D
:103BE00023F40063AB81DB0469602A6048D4296B4D
:103BF000C8F8006019B305F14003994202D040466D
:103C000000F0DAF900202863BDE8F0812E69B6B132
:103C1000910718BF00232C6808BF6B692E60A41B96
:103C2000AB600AE0234632466F6AE9694046B8470E
:103C30000028A4EB0004064404DD002CF2DC002084
:103C4000BDE8F081AB894FF0FF3043F04003AB811A
:103C5000BDE8F081D8F800401D2CF3D8164BE340A6
:103C6000DB4313F00103EDD1B5F90C20296922F4EF
:103C70000062AA81D2046B602960B8D5002CB6D14D
:103C80002865B4E7EA6B002A8BDCD8E70123E969F1
:103C90004046A047431C024602D0AB89AC6A8DE780
:103CA000D8F80030002BF8D01D2B01D0162BC9D12D
:103CB000C8F80060C3E700BF0100402038B50D46DA
:103CC000044608B1836BBBB1B5F90C0088B16B6ECB
:103CD000DB0701D4810517D520462946FFF752FF9F
:103CE0006B6E0446DA0702D4AB899B0507D52046E4
:103CF00038BD0446204638BD00F038F8E4E7A86D2A
:103D000000F0F6FB204638BDA86D00F0EFFBE3E7BE
:103D1000014900F0B1BB00BF19530800002310B5E2
:103D200004468181C281036043608360436603610E
:103D300043618361194608225C30FEF79BFE074809
:103D40000749084A084B2062E4616162A262E362AB
:103D500004F15800BDE8104000F0C4BB61500800F9
:103D600085500800C1500800E150080010B5044615
:103D7000144800F0BBFBA26BFAB90320124904F50A
:103D80003B73C4F8E832C4F8E022C4F8E402E1630B
:103D900060680421FFF7C2FFA06801220921FFF734
:103DA000BDFFE06802221221FFF7B8FF012305489A
:103DB000A363BDE8104000F09BBB0248BDE8104083
:103DC00000F096BB50C50720113D0800014800F0E7
:103DD0008DBB00BF64C50720014800F089BB00BF50
:103DE00064C5072038B50A4C0A4D641BA4100AD0DC
:103DF00004F18043013B05EB8305013C55F8043990
:103E00009847002CF9D1BDE8384001F0ADBD00BFA6
:103E100078590800745908002DE9F04383B007462B
:103E20008846144600F050FB012833D0424604F186
:103E30005C0301A9384601F0AFF9421C064622D0C6
:103E400090B39DF8041000250DF1040908E02368E3
:103E50005A1C226019700135B54225D215F8091097
:103E6000A368013B002BA360F1DAA269934201DB56
:103E70000A29ECD12246384601F036F9431CEAD132
:103E800003B0BDE8F083A38943F04003A38103B0EE
:103E9000BDE8F08308F1FF33FE2BC7D85FFA88F145
:103EA00006468DF80410CEE7404603B0BDE8F08327
:103EB00030B5536E144613F0010FB2F90C3083B0D5
:103EC00005469AB201D190051CD5900406D4626EC5
:103ED00043F4005342F40052A3816266284622460E
:103EE000FFF79AFF636E0546DA0702D4A3899B05A4
:103EF00002D5284603B030BDA06D00F0F9FA28467F
:103F000003B030BDA06D019100F0F0FAB4F90C30AF
:103F100001999AB2D9E700BFF8B50C46234F06467F
:103F200000F0CAFEBB68C4F57E615D680F3125F004
:103F30000305294421F47F6121F00F01A1F580548C
:103F4000B4F5805F07DB0021304601F077F8BB68ED
:103F50002B44984204D0304600F0B4FE0020F8BD57
:103F60006142304601F06AF801300DD0104BBA685A
:103F700019682D1B45F001053046091B5560196075
:103F800000F0A0FE0120F8BD0021304601F056F8F7
:103F9000BA68831A0F2BDEDD064C0549246843F00E
:103FA0000103001B53600860D5E700BFD00607205F
:103FB000C0C40720D80A0720002944D02DE9F041C9
:103FC0000D46804600F078FE55F8047C6949A5F15D
:103FD000080427F00103E2188E685068B24220F00E
:103FE00003005ED0FE0750600BD455F8087C01F149
:103FF000080EE41BA5683B4475456DD0E768EF608B
:10400000BD6015186D68ED073ED543F00102626092
:10401000E350B3F5007F17D20122DB0898104D68FA
:10402000134451F83370824001EBC3002A4308382F
:10403000E060A7604A6041F83340FC604046BDE85C
:10404000F04100F03FBE70475A0A042A52D89A093C
:1040500002F13907FF0002F13805C819CA590838BA
:1040600090424FD0516821F003018B4232D29268C6
:104070009042F7D1C368A060E3609C60C460404692
:10408000BDE8F04100F01EBE95683B4F0344BD42C1
:1040900040D0D06843F00102E86085606260E35080
:1040A000B7E7FF07034407D455F8085C641BE268D0
:1040B000A0682B44C2609060304A43F0010012684F
:1040C000606093428C60B9D32D4B40461968FFF76E
:1040D00023FFB3E71046CDE711184968C90744D458
:1040E00091680344D26843F00100CA609160606047
:1040F000E350A3E7142A16D802F15C07FF0002F18F
:104100005B05AAE70123AA104D6893402B434B603F
:104110000346B0E743F001024C610C61E560A56025
:104120006260E3508AE7542A06D81A0B02F16F073F
:10413000FF0002F16E0590E7B2F5AA7F06D8DA0B10
:1041400002F17807FF0002F1770586E740F254504C
:10415000824206D89A0C02F17D07FF0002F17C052D
:104160007BE74FF47E777E2577E743F001016160BE
:10417000136063E7D0060720D8060720DC0A072073
:10418000F0C407209368002B71D02DE9F04F8B8984
:1041900083B00C4619070090164625D522691AB33C
:1041A00013F0020035682BD04FF00009B0464F469F
:1041B000DFF8C0A2002F55D057453B464A4628BFDE
:1041C0005346E1690098666AB047002856DDD8F882
:1041D000083081441B1A3F1AC8F80830002BE9D177
:1041E000002003B0BDE8F08F21460098FFF756FC91
:1041F000002840F03581A389356813F00200D3D13F
:1042000013F0010944D14F46019637B39A05D4F80B
:10421000088040F185804745C346C0F0AD8013F467
:10422000906F40F0AE80BA4620685A46494600F08A
:10423000DFFCA2682368A2EB08025B44A260236053
:10424000019AD1449368A7EB0A07A3EB0A03936092
:10425000002BC5D0A389002FD8D1D5F800906F6866
:104260000835D2E7D5F800906F680835A2E700203E
:10427000704721460098FFF721FD78B3B4F90C3060
:104280004FF0FF3043F04003A38103B0BDE8F08F4F
:10429000814633464E46A8469A464D4656B30028B8
:1042A00032D0B145CB4628BFB346206823695F466C
:1042B0009842626904D9A36813449B4500F3A8801F
:1042C00093454DDB1346676A2A46E1690098B84773
:1042D000071ED3DDB9EB0709CBD00120DAF808308F
:1042E0003D44DB1BF61BCAF80830002B3FF478AFC7
:1042F000002ED4D108F1080353F8046C984653F803
:10430000085C0833002EF7D032460A21284600F018
:1043100029FC002800F0A1800130A0EB0509C0E7CE
:1043200020682369984202D863699F425DD2B845EC
:1043300028BFB8464946424600F05AFCA3682268A6
:10434000A3EB08034244A36022600BB1C24677E7A7
:1043500021460098FFF7B2FC00288FD1C2466FE7D4
:104360005A46294600F044FCA2682368A2EB0B02DF
:104370005B44A2602360ADE7B846BA46BB462068FE
:1043800053E762692068216902EB4208A0EB010A49
:1043900008EBD8780AF101004FEA68083844404534
:1043A000424684BF804642465B0544D5114600988C
:1043B00000F020F98346002855D052462169FEF7C7
:1043C000E3FAA38923F4906343F08003A3810BEB0A
:1043D0000A00A8EB0A03C4F810B0C4F814802060E7
:1043E000A360B846BA46BB461FE76FF00042BA4228
:1043F00028BF3A4692FBF3F2E16903FB02F300980F
:104400004A46666AB047B0F1000A3FF719AF35E790
:104410001A462946019300F0EBFB2268019B2146D6
:104420001A4422600098FFF749FC019B00287FF4A2
:1044300025AF1F464EE7009800F04AFC834600284F
:10444000C5D1009D21692846FFF7B6FD0C22B4F9BD
:104450000C302A6023F0800312E706F1010920E7FF
:104460004FF0FF30BDE60C220099B4F90C300A6021
:1044700006E700BF00FCFF7F2DE9F84310F5387612
:104480001ED0884607464FF000097568B468013DA4
:1044900010D4A389013D012B08D9B4F90E300133A2
:1044A00004D021463846C04749EA00096B1C04F194
:1044B0006804EED13668002EE7D14846BDE8F8839F
:1044C000B1464846BDE8F883044B054A1B685B6B60
:1044D000002B08BF134693F82801704734010720CA
:1044E00064050720704700BF704700BF704700BFDA
:1044F000704700BF70B50C46B1F90E1090B000299E
:1045000015461E4614DB01AA00F068FF00280FDBE9
:10451000029A4FF4806302F47042A2F50052B2FA9C
:1045200082F24FF40060520932602B6010B070BD0F
:104530000023A289336012F0800004D04022184684
:104540002A6010B070BD4FF480632B6010B070BD56
:104550008A890B46920706D5012103F1430259616E
:104560001A601A617047F0B583B001AB6A460C4619
:104570000646FFF7BFFF00990546304600F03AF8BF
:10458000B4F90C30D8B19DE80600154F43F0800314
:10459000F763A3812060206161611AB92B43A38175
:1045A00003B0F0BD3046B4F90E1000F02BFFA0B1FF
:1045B000A38923F0030343F001031BB2EEE79A053E
:1045C000EED4012123F0030304F1430243F002037C
:1045D000A381616122602261E2E7B4F90C30DDE77A
:1045E000113D0800024B0146186800F003B800BFF7
:1045F000340107202DE9F04F01F10B06162E83B090
:10460000054640F29E8036F0070600F1BD80B142BB
:1046100000F2BA8000F050FBB6F5FC7FC0F0858256
:10462000730A00F0B880042B00F26C81B30903F127
:10463000390003F1380EC100B84F39444C680839CD
:10464000A14206D10CE0002A80F2AB80E468A142CE
:1046500006D0636823F003039A1B0F2AF3DD70462C
:104660003C69DFF8CCE2744500F09E81636823F07A
:1046700003039A1B0F2A00F38381002AC7F814E072
:10468000C7F810E080F29180B3F5007F80F054818C
:104690000122DB0879684FEAA30C134457F83380F2
:1046A00002FA0CF207EBC30C0A43ACF10801E1601B
:1046B000C4F808807A6047F83340C8F80C400124F9
:1046C00083109C4094427DD8144206D120F0030010
:1046D0006400144200F10400FAD007EBC009CC4694
:1046E0008046DCF80C309C4507D15FE1002A80F25F
:1046F0006D81DB689C4500F05981596821F0030108
:104700008A1B0F2AF2DDDC68D3F808C046F00108E6
:1047100028461E4442F00105C3F80480CCF80C4042
:10472000C4F808C07E613E61C6F80CE0C6F808E037
:1047300075605A50009300F0C5FA009B03F108041D
:104740001EE0102920D800F0B7FA10261823022006
:10475000724F3B445C68A3F10802944200F02F8141
:104760006368E16823F0030323445A68A66842F0B3
:104770000102F16028468E605A6000F0A3FA083406
:10478000204603B0BDE8F08F00240C2320462B60A8
:1047900003B0BDE8F08F40204FF400714FF03F0EA2
:1047A0004AE723445A68E168E0E723445A68284608
:1047B00042F001025A60083400F084FA204603B047
:1047C000BDE8F08FBC68636823F00308B04504D3EC
:1047D000A8EB06030F2B00F38580DFF85891504BB0
:1047E000D9F800201B680132334404EB080A00F0BA
:1047F000548103F580530F3323F47F6B2BF00F0BA1
:104800005946284600F01AFC411C024600F0FB8085
:10481000824500F2F680434B19685944196000F054
:104820004C81D9F8000001301BBFA2EB0A0A5144A9
:10483000C9F80020196012F0070100F01481C1F1DD
:104840000800C1F580510244083102EB0B09C9F39D
:104850000B09A1EB0909494628460193009200F093
:10486000EDFB431C9DE80C0000F04281801A484497
:1048700040F001001968BC424944BA6019605060B8
:1048800017D0B8F10F0F40F2FA804FF0050C6268B4
:10489000A8F10C0020F0070002F0010204EB000E6A
:1048A00002430F286260CEF804C0CEF808C000F2C0
:1048B00016811D4BBC681A68914288BF19601B4B5A
:1048C0001A689142626888BF196022F0030296421A
:1048D000A2EB060301D80F2B04DC284600F0F2F906
:1048E00000244DE746F0010243F0010326446260D4
:1048F0002846BE600834736000F0E4F9204603B037
:10490000BDE8F08F142B70D9542B00F2A280330B2A
:1049100003F16F0003F16E0EC1008DE6D006072093
:10492000F0C40720C0C40720E8C40720ECC4072057
:10493000D8060720D80A07205A0A042A5BD9142A65
:1049400000F2AE8002F15C01C9005B3207EB010CA2
:104950007958ACF1080C8C4500F088804A6822F048
:104960000302934273D289688C45F7D1DCF80C308E
:104970007A68E360C4F808C09C60CCF80C409EE6FE
:1049800046F0010C42F001012644C4F804C0284658
:104990007E613E61C6F80CE0C6F808E07160E25046
:1049A00000F090F90834EBE67A6888E608F101082F
:1049B00018F0030F0CF1080C7FF493AE2DE0DC68C7
:1049C000A34208BF02303FF44BAEC9E61C4619446F
:1049D0004A68DB6854F8086F42F001024A602846D2
:1049E000F3609E6000F06EF9CAE603F15C0003F12B
:1049F0005B0EC10020E69A0902F13901C900383284
:104A0000A4E7BC4254D0BC68626822F003025EE7AF
:104A100059F80839994540F0868010F0030F00F1ED
:104A2000FF30F5D17B6823EA04037B6064009C427D
:104A30003FF6C8AE002C3FF4C5AE1C4240467FF4A2
:104A40004CAE64001C4200F10400FAD045E68C46EE
:104A50008CE7B3F5AA7F15D8F30B03F1780003F1C7
:104A6000770EC100E8E54FF48051EEE601217B6846
:104A7000921001FA02F21A437A60634679E7012341
:104A800053602AE740F25452934222D8B30C03F108
:104A90007D0003F17C0EC100CEE503F1100BAFE603
:104AA000542A29D81A0B02F16F01C9006E324DE762
:104AB000204B196859441960B3E6CAF30B0000286B
:104AC0007FF4AFAE08EB0B03BA6843F00103536009
:104AD000EFE67F204FF47E714FF07E0EACE504F1DF
:104AE000080128460093FFF767FA009B1968E0E683
:104AF00001204FF00009BDE6B2F5AA7F05D8DA0B18
:104B000002F17801C900773220E740F254518A421D
:104B100005D89A0C02F17D01C9007C3216E74FF4EA
:104B20007E717E2212E77B6880E7F00806F10803B9
:104B30000EE600BFC0C4072082B049B15AB16BB1C4
:104B400013780B601278101C18BF012002B0704758
:104B500001A9002AF3D1104602B070476FF001009E
:104B6000F4E700BF830770B4CDB23DD0541E0AB342
:104B70000378AB421FD0431C05E014F1FF3419D376
:104B80000278AA4217D013F0030F184603F101036D
:104B9000F3D1032C11D84CB30378AB420BD00444AF
:104BA000431C02E00278AA4205D09C42184603F159
:104BB0000103F7D1002070BC7047090289B2294374
:104BC00041EA0141036806464B40A3F1013222EA63
:104BD000030313F0803F00F1040003D1043C032CD5
:104BE000F0D8D8E73046D7E71446D2E72046E2E7C8
:104BF0008842F0B50DD98B1898420AD28418002A41
:104C000051D0224613F8014D994202F8014DF9D1D5
:104C1000F0BD0F2A48D941EA00039B0746D115464B
:104C200000F1100401F1100353F8106C103D44F82A
:104C3000106C53F80C6C0F2D44F80C6C53F8086C86
:104C400004F1100444F8186C53F8046C03F11003D9
:104C500044F8146CE8D8A2F1100323F00F0302F01B
:104C60000F0E1033BEF1030F1944034421D90E4631
:104C700074461D1F56F8047B043C032C45F8047F42
:104C8000F8D8AEF1040424F003040434214423448E
:104C900002F0030262B1013B0A4411F8014B8A425F
:104CA00003F8014FF9D1F0BD0346F3E70346F2E7FD
:104CB000F0BD7246EEE700BF0148FFF717BC00BF2A
:104CC00054C507200148FFF713BC00BF54C5072097
:104CD000002900F094802DE9F04F0C46154683B072
:104CE000804605F10B06FFF7E7FF54F804EC162E9B
:104CF0002EF00307A4F108093CD810221646B5424D
:104D00003DD8974243DAC64B09EB070099688842C1
:104D100000F0C380436823F0010101444968C907DA
:104D20004DD51EF0010F00F09B8029464046FFF74D
:104D300061FC054600283BD054F8043CA0F1080271
:104D400023F001034B449A4200F02B813A1F242A9E
:104D500000F21881132A00F2EB8003462246116804
:104D600019605168596092689A6021464046FFF781
:104D700023F91DE026F00706002E3246BFDA002593
:104D80000C232846C8F8003003B0BDE8F08F254654
:104D9000BB1B0F2BD9F804201DD802F001023A43A7
:104DA00009EB0701C9F804204B6843F001034B608D
:104DB0004046FFF787FF284603B0BDE8F08F23F099
:104DC0000303F91891421DDBC36882682546D3604E
:104DD0000F469A60DCE702F0010209EB060143F09E
:104DE00001033243C9F804204F444B607B6808310B
:104DF00043F001037B604046FFF7DEF8D8E7114639
:104E0000FFF7F8BB1EF0010F8FD154F8081CA9EB77
:104E1000010ADAF8041021F003010B443B449342E9
:104E200026DB5546C16880683A1FC160886055F826
:104E3000080FDAF80C10242AC160886026D8132ADB
:104E400040F2818021681B2ACAF808106168CAF8FC
:104E50000C1000F2AD8004F108000AF1100274E0B9
:104E600054F8083CA9EB030ADAF8041021F0030116
:104E70007B189342FFF659AF5546DAF80C1055F8F7
:104E8000080F3A1F242AC1608860D8D921462846D5
:104E90001F46D146FFF7ACFE7AE7416806F11000E5
:104EA00021F0030BBB44834558DA1EF0010F7FF459
:104EB0003CAF54F8081CA9EB010ADAF8041021F001
:104EC00003018B445845D3DC5546DAF80C1055F8ED
:104ED000080F3A1F242AC160886000F28D80132ACF
:104EE00040F2878021681B2ACAF808106168CAF856
:104EF0000C1000F2888004F108010AF11002086821
:104F000010604868506089689160ABEB06020AEB5C
:104F1000060142F0010299604A60DAF80430404626
:104F200003F001031E43CAF80460FFF7CBFE42E71B
:104F300023681B2A03606368436027D800F10803D5
:104F400004F108020BE720462A4601681F4611605B
:104F50004168D14651608368936019E7ABEB060B5B
:104F600009EB06014BF0010299604A6054F8043CD9
:104F7000404603F001031E4344F8046CFFF7A2FE11
:104F8000254618E72146FFF733FEEEE6A368242AFC
:104F90008360E368C36018D000F1100304F11002CD
:104FA000DDE650F8043C254623F003031F44EFE6FA
:104FB000A168242ACAF81010E168CAF814100DD0AC
:104FC00004F110000AF11802BFE7226900F118038A
:104FD0000261616904F118024161C0E6226904F1CD
:104FE0001800CAF8182061690AF12002CAF81C10DA
:104FF000ABE721462A4682E7214628460193FFF780
:10500000F7FD019B81E7A168242ACAF81010E16826
:10501000CAF8141006D004F110010AF118026EE764
:10502000D0060720226904F11801CAF81820606927
:105030000AF12002CAF81C0061E700BF38B500235E
:10504000064C054608462360FDF7BCFB431C00D018
:1050500038BD2368002BFBD02B6038BD68C5072006
:1050600010B50C46B1F90E1000F0F4F9002803DB7E
:10507000236D0344236510BDA38923F48053A381CA
:1050800010BD00BF2DE9F0410C46B1F90C101F46D0
:10509000CB051646054607D5B4F90E1002230022AB
:1050A00000F0C2F9B4F90C1021F48051A1813B4603
:1050B0003246B4F90E102846BDE8F04100F0A2B81F
:1050C00010B50C46B1F90E1000F0AEF9A389421CE0
:1050D0000EBF23F4805343F480532065A38110BD99
:1050E000B1F90E1000F006B9F8B50D4614460646A3
:1050F00010B1836B002B4BD0B4F90C20A36991B293
:105100000807A36039D52369002B36D0EDB2890496
:105110002F4615D522686169D31A8B421CDA0133F8
:10512000A168501C0139A1602060157062699A4223
:105130001AD0A389DB0701D50A2D15D03846F8BD52
:10514000616E42F4005221F40051A281226861662E
:105150006169D31A8B42E2DB21463046FEF7AEFD91
:1051600040B901232268DBE721463046FEF7A6FD61
:105170000028E3D04FF0FF37E0E721463046FEF746
:105180008DFC0028F6D1B4F90C20236991B2BDE75B
:10519000FEF7ECFDB0E700BFF0B5064685B01F4650
:1051A00089B1104C104D2468646B002C08BF2C464C
:1051B000D4F8E040A047431C03D100228A233A6080
:1051C000336005B0F0BD0C46064A074D1168224613
:1051D0004C6B01A9002C08BF2C46D4F8E040A04736
:1051E000E9E700BF340107206405072019B1FF2A51
:1051F00003D80A700121084670478A234FF0FF3117
:105200000360F8E7F8B50E460025084C114607463E
:105210001A4630462560FAF7C1FF431C00D0F8BD9E
:105220002368002BFBD03B60F8BD00BF68C507209A
:105230002DE9F8432C4D0646286898460F469146BE
:10524000FFF754F9294B1C68D4F84831002B3ED0A5
:105250005A681F2A1CDC02F1010E76B1012103EB12
:105260008204C4F88890D3F8880191400843022E44
:10527000C3F88801C4F8088123D00232C3F804E0DF
:10528000286843F82270FFF733F90020BDE8F8835F
:10529000174B0BB34FF4C870FFF7A4F90346D8B10E
:1052A0000020D4F848114FF0010E586019600246F2
:1052B000C4F84831C3F88801C3F88C01002EDCD053
:1052C000CCE7D3F88C010143C3F88C11D5E704F582
:1052D000A673C4F84831BBE72868FFF709F94FF017
:1052E000FF30BDE8F88300BF60050720EC570800D9
:1052F000E545080038B50023064C054608462360FE
:10530000FDF77CFA431C00D038BD2368002BFBD08E
:105310002B6038BD68C5072070B559B105460C46ED
:1053200010B1836B002B3CD0636ED80705D5B4F960
:105330000C302BB90026304670BDA38999053CD5A9
:1053400021462846FEF71EFCE36A064633B1E169B2
:10535000284698470028B8BF4FF0FF36A3891A06A1
:1053600022D4216B41B104F14003994202D0284676
:10537000FEF722FE00232363616C21B12846FEF76D
:105380001BFE00236364FEF721FD0022636EA281F1
:10539000DB070ED5A06DFFF7A7F8FEF71DFD304621
:1053A00070BDFEF7E3FCBFE721692846FEF704FE67
:1053B000D7E7A06DFFF79CF8ECE7A06DFFF796F834
:1053C000B4F90C30002BBBD1666E16F00106B1D1DA
:1053D000A06DFFF78DF8304670BD00BF70B50D466B
:1053E0000023074C0646114628462360FDF709FABC
:1053F000431C00D070BD2368002BFBD0336070BD10
:1054000068C5072038B50023064C054608462360CA
:10541000FDF7FCF9431C00D038BD2368002BFBD0FE
:105420002B6038BD68C50720F8B50E460025084C2E
:10543000114607461A4630462560FDF7E9F9431C38
:1054400000D0F8BD2368002BFBD03B60F8BD00BF47
:1054500068C50720F8B50E460025084C11460746DA
:105460001A4630462560FAF77BFE431C00D0F8BD93
:105470002368002BFBD03B60F8BD00BF68C5072048
:1054800053B94AB9002908BF00281CBF4FF0FF31AB
:105490004FF0FF3000F07AB9ADF1080C6DE904CEA1
:1054A00000F006F8DDF804E0DDE9022304B07047FF
:1054B0002DE9F0478C460E460446089D002B50D13E
:1054C0008A4217466CD9B2FA82FEBEF1000F0BD0A9
:1054D000CEF1200C01FA0EF620FA0CFC02FA0EF7BF
:1054E0004CEA060C00FA0EF43A0CBCFBF2F9BBB223
:1054F00002FB19CC09FB03FA4FEA144848EA0C46B0
:10550000B2450AD9F61909F1FF3180F02581B2457B
:1055100040F22281A9F102093E44A6EB0A06B6FB3D
:10552000F2F002FB106600FB03F3A4B244EA064467
:10553000A34209D9E41900F1FF3280F00B81A342A4
:1055400040F2088102383C440021E41A40EA094054
:10555000002D62D0002324FA0EF42C606B60BDE8AD
:10556000F0878B4207D9002D55D0002185E84100F6
:105570000846BDE8F087B3FA83F1002940F08F8038
:10558000B34202D3824200F2FC80841A66EB030627
:105590000120B446002D40D085E81010BDE8F0870A
:1055A00012B90127B7FBF2F7B7FA87FEBEF1000F79
:1055B00035D10121F61B4FEA174C1FFA87F8B6FBCD
:1055C000FCF20CFB126608FB02F0230C43EA0646D1
:1055D000B04207D9F61902F1FF3302D2B04200F20D
:1055E000D2801A46361AB6FBFCF00CFB106608FB9C
:1055F00000F8A3B243EA0644A04507D9E41900F134
:10560000FF3302D2A04500F2B9801846A4EB08048B
:1056100040EA02409CE729462846BDE8F08707FAA1
:105620000EF7CEF1200326FA03F24FEA174CB2FB35
:10563000FCF11FFA87F80CFB112206FA0EF620FA8D
:1056400003F301FB08F933431E0C46EA0246B14559
:1056500000FA0EF409D9F61901F1FF3280F08C80BE
:10566000B14540F2898002393E44A6EB0906B6FBFB
:10567000FCF00CFB106200FB08F99EB246EA024601
:10568000B14507D9F61900F1FF3371D2B1456FD991
:1056900002383E44A6EB090640EA01418FE7C1F11A
:1056A000200722FA07F88B4048EA030326FA07F49A
:1056B0004FEA134EB4FBFEF91FFA83FC0EFB1944AC
:1056C0008E4020FA07F809FB0CFA48EA06084FEA70
:1056D000184646EA0444A24502FA01F200FA01F62D
:1056E00008D9E41809F1FF3044D2A24542D9A9F102
:1056F00002091C44A4EB0A04B4FBFEF00EFB1044A8
:1057000000FB0CFC1FFA88F848EA0444A44507D9BA
:10571000E41800F1FF3E29D2A44527D902381C44E1
:1057200040EA0940A0FB0289A4EB0C0CCC45C24620
:10573000CE4615D312D055B1B6EB0A036CEB0E066C
:1057400006FA07F7CB401F43CE402F606E60002162
:10575000BDE8F0871046F7E68946DEE64645EAD220
:10576000B8EB020A69EB030E0138E4E77046D7E7AD
:1057700018468FE78146BDE7114676E702383C447C
:1057800044E7084606E7023A3E442BE7704700BF6D
:105790002563000049444C4500000000546D7251DF
:1057A00000000000546D7220537663004D657373E2
:1057B0006167652031207072696E74207461736B4B
:1057C0000000000056616420000000004D65737306
:1057D0006167652032207072696E74207461736B2A
:1057E0000000000042726121200A000038010720F9
:1057F0003031323334353637383941424344454607
:1058000000000000303132333435363738396162C8
:105810006364656600000000286E756C6C290000EA
:105820002020202020202020202020202020202078
:105830003030303030303030303030303030303068
:1058400043000000504F5349580000002E00000054
:105850000020202020202020202028282828282040
:105860002020202020202020202020202020202038
:1058700020881010101010101010101010101010A0
:105880001004040404040404040404101010101090
:10589000101041414141414101010101010101015A
:1058A00001010101010101010101010110101010AC
:1058B000101042424242424202020202020202022C
:1058C0000202020202020202020202021010101080
:1058D00020000000000000000000000000000000A8
:1058E00000000000000000000000000000000000B8
:1058F00000000000000000000000000000000000A8
:105900000000000000000000000000000000000097
:105910000000000000000000000000000000000087
:105920000000000000000000000000000000000077
:105930000000000000000000000000000000000067
:105940000000000000000000000000000000000057
:1059500000000000F8B500BFF8BC08BC9E467047C8
:10596000653B080019010800F8B500BFF8BC08BC89
:085970009E467047F500080097
:0859780038FBFF7F0100000075
:105980004FF48063204A136002F5007213601F4BCE
:105990001B6A13F0807F07D11D4A1C4B1A621A46FE
:1059A000936E13F0010FFBD01A4A184B1A621A4675
:1059B000936E13F4803FFBD0144A136B23F0030360
:1059C00043F001031363936E13F0080FFBD0124AE8
:1059D0000E4B9A621A46936E13F0020FFBD01122FF
:1059E0000A4B1A631A46936E13F0080FFBD012226B
:1059F000064B1A631A46936E13F0080FFBD0074A42
:105A0000074B1A60704700BF000A0E4000060E40A8
:105A10000908370009083701013F0D2000BD0105C5
:105A2000300107201B4B984215D91B4B984219D9BE
:105A30001A4B98421ED91A4B984223D9194B9842B7
:105A400094BF4FF480634FF4A063174A136002F5CC
:105A50000072136070470023134A136002F500724E
:105A6000136070474FF480730F4A136002F50072A1
:105A7000136070474FF400730B4A136002F5007215
:105A8000136070474FF44073074A136002F50072C9
:105A900013607047BFEA21017FF0FA02FF8FD00345
:105AA000FFB3C4047F4A5D05000A0E40AAAAAAAA51
:105AB00000093D00380107200000000024040720F1
:105AC0008C040720F4040720000000000000000000
