:0200000280007C
:10000000A8DF0720351F0800311F0800311F080036
:10001000311F0800311F0800311F080000000000D8
:100020000000000000000000000000008102080045
:10003000311F0800000000002103080069030800C8
:10004000311F0800311F0800311F0800311F080050
:10005000311F0800311F0800311F0800311F080040
:10006000311F0800311F080000000000D91D0800E2
:10007000ED1D0800011E0800151E0800000000000C
:1000800000000000311F0800311F0800311F080068
:10009000311F0800311F0800311F0800311F080000
:1000A000311F080000000000311F0800311F080048
:1000B000311F0800311F0800311F0800311F0800E0
:1000C000311F0800311F0800311F0800311F0800D0
:1000D000311F0800311F0800311F0800311F0800C0
:1000E000311F0800311F0800311F0800311F0800B0
:1000F000311F080010B5054C237833B9044B13B1F8
:100100000448AFF300800123237010BD640507206D
:1001100000000000542508000C4B43B10C4810B5FA
:100120000C49AFF300800C48036823B910BD0A489E
:10013000036833B97047094B002BF7D0BDE8104076
:100140001847064B002BF5D0184700BF00000000F1
:100150005425080068050720542508000000000009
:1001600000F1080343604FF0FF328260C360036117
:1001700000230360704700230361704743684B60AE
:100180009A688A609A6851609960086103680133CF
:100190000360704730B40D68B5F1FF3F02D000F145
:1001A000080202E0026904E01A4653681C68A5428E
:1001B000FAD253684B6099608A60516008610368A5
:1001C0000133036030BC7047036942688168916005
:1001D0008268416851605A68904204BF82685A60E0
:1001E000002202611A68013A1A601868704700001C
:1001F00082B0002301930D4B1B68B3F1FF3F08D081
:100200004FF0400383F31188BFF36F8FBFF34F8F1D
:10021000FEE74FF0400383F31188BFF36F8FBFF306
:100220004F8F019B002BFCD002B070472C010720A0
:1002300006480068006880F3088862B661B6BFF3BC
:100240004F8FBFF36F8F00DF00BF000008ED00E0AD
:100250004FF0807340F8043C21F0010140F8081C85
:10026000034B40F80C3C40F8202C4038704700BF4E
:10027000F101080000000000000000000000000084
:10028000074B19680868B0E8F00F80F30988BFF3DE
:100290006F8F4FF0000080F311884EF00D0E704705
:1002A00090BD0720704700BF4FF0400383F31188D3
:1002B000BFF36F8FBFF34F8F0A4A13680133136088
:1002C000012B0DD1084B1B6813F0FF0F08D04FF026
:1002D000400383F31188BFF36F8FBFF34F8FFEE7A7
:1002E000704700BF2C01072004ED00E0094B1B689C
:1002F00043B94FF0400383F31188BFF36F8FBFF30F
:100300004F8FFEE7013B034A13600BB983F311885B
:10031000704700BF2C010720000000000000000013
:10032000EFF30980BFF36F8F0D4B1A6820E9F00FD0
:1003300010602DE908404FF0400080F3118800F074
:10034000FFFF4FF0000080F31188BDE808401968F6
:100350000868B0E8F00F80F30988BFF36F8F70472B
:1003600090BD0720704700BF08B54FF0400383F3EE
:100370001188BFF36F8FBFF34F8F054B984718B1AC
:100380004FF08052034B1A60002383F3118808BD9D
:100390004D10080004ED00E0054B00221A600549ED
:1003A0000A600549054A116007221A60704700BFBC
:1003B00010E000E018E000E01F48010014E000E059
:1003C00010B582B0294B1A78D2B20192FF221A706E
:1003D0001B78DBB28DF803309DF8033003F0400347
:1003E000234A13700722234B1A609DF8033013F041
:1003F000800F12D0062300E00B469DF80320520028
:10040000D2B28DF803209DF80320591E12F0800F00
:10041000F2D1184A1360032B08D04FF0400383F346
:100420001188BFF36F8FBFF34F8FFEE71B0203F4FA
:10043000E063104A1360019BDBB20C4A13700E4B51
:100440001A6842F4E0021A601A6842F0E0421A6048
:100450000A4B984700240A4B1C600A4B98470A4BEA
:1004600098470A4B9847204602B010BD00E400E0D0
:10047000800507208405072020ED00E0990308008F
:100480002C0107203102080041130800F101080087
:10049000EFF305830F2B0FD9104A9B5CDBB2104A98
:1004A00012789A4208D94FF0400383F31188BFF3C2
:1004B0006F8FBFF34F8FFEE70A4B1B6803F4E063B7
:1004C000094A1268934208D94FF0400383F3118818
:1004D000BFF36F8FBFF34F8FFEE77047F0E300E08D
:1004E000800507200CED00E08405072038B50446A0
:1004F00010F0070F1CBF20F007040834104B98477A
:10050000104B1B688BB1104B1B681C444BF2F772ED
:10051000944210D8A34210D20A4A15681D440A4BCF
:100520001C600A4B9847284638BD094B23F0070347
:10053000044A1360E7E70025F3E70025F1E700BF71
:1005400031100800880507208CBD072081110800A4
:100550009405072040B14FF0400383F31188BFF3A7
:100560006F8FBFF34F8FFEE77047000010B5044652
:10057000044B9847A46B044B9847B4FA84F04009A5
:1005800010BD00BFA9020800ED02080070B50446C6
:100590001646856B026C52B90368002B2AD140685D
:1005A000184B9847002363600135A56370BD6EB991
:1005B0008068154B9847A368226C1344A360626857
:1005C000934219D32368A3600020EDE7C0680E4B67
:1005D0009847236C5B42E2681A44E26021688A42D1
:1005E00002D262681344E360022E07D145B1013D97
:1005F0000020D9E70020D7E70020D5E70020D3E787
:100600000020D1E7B115080051220800026C72B138
:1006100010B50346C4681444C4604068844224BFD3
:100620001868D8600846D968014B984710BD7047D4
:10063000512208002DE9F0410546204B984795F8D6
:10064000454064B2002C12DD6B6A83B105F12407CA
:100650001B4EDFF8748004E0013C64B23CB16B6A6D
:100660002BB13846B0470028F6D0C047F4E7FF2347
:1006700085F84530134B9847104B984795F8444000
:1006800064B2002C12DD2B6983B105F110070C4E0A
:10069000DFF8348004E0013C64B23CB12B692BB13B
:1006A0003846B0470028F6D0C047F4E7FF2385F866
:1006B0004430044B9847BDE8F08100BFA902080010
:1006C00051140800ED0208008515080038B530B354
:1006D00004460D461C4B98472268216CE36B03FBD4
:1006E00001F3D01860600020A063A2605B1A13447D
:1006F000E360FF2384F8443084F84530C5B92369AA
:10070000EBB104F11000114B9847C0B14FF080528B
:100710000F4B1A60BFF34F8FBFF36F8F0FE04FF097
:10072000400383F31188BFF36F8FBFF34F8FFEE752
:1007300004F11000074DA84704F12400A847064B18
:100740009847012038BD00BFA902080051140800D5
:1007500004ED00E061010800ED020800F8B540B9C1
:100760004FF0400383F31188BFF36F8FBFF34F8FB8
:10077000FEE7064617460D4601FB00F050300A4BD7
:100780009847044668B11DB100F15003036000E0D2
:100790002060E663256401212046044B984784F8D5
:1007A0004C702046F8BD00BFED040800CD060800DF
:1007B0002DE9F04F85B0019298B10446D1B1022BDA
:1007C00024D01E460F465B4B984758BB019B8BB30A
:1007D0004FF0400383F31188BFF36F8FBFF34F8F48
:1007E000FEE74FF0400383F31188BFF36F8FBFF331
:1007F0004F8FFEE7026C002AE1D04FF0400383F3F5
:100800001188BFF36F8FBFF34F8FFEE7E26B012AB2
:10081000D7D04FF0400383F31188BFF36F8FBFF33E
:100820004F8FFEE70025DFF83481DFF834A1DFF8D1
:10083000109130E00025F6E73246394620463E4B1F
:100840009847636A93B104F124003C4B984738B150
:100850004FF080523A4B1A60BFF34F8FBFF36F8F48
:10086000384B9847012005B0BDE8F08F0028F7D03D
:100870004FF08052324B1A60BFF34F8FBFF36F8F30
:10088000EEE7304B98470020EDE720462E4B984787
:100890002E4B98470125C047A26BE36B9A42CBD3FE
:1008A000022EC9D0019B002BEBD00DB902A8D04776
:1008B000244B9847264B9847C04794F844305BB286
:1008C000B3F1FF3F04BF002384F8443094F845306F
:1008D0005BB2B3F1FF3F04BF002384F84530194BEE
:1008E000984701A902A81B4B9847E0B9C047D4F824
:1008F00038B0E56B134B9847AB45C6D1019904F16D
:100900001000154B984720460F4B98470F4B9847C0
:100910000028BFD14FF08053C9F80030BFF34F8F8C
:10092000BFF36F8FB6E72046074B9847074B9847B2
:10093000002098E7911508008D0508005114080063
:1009400004ED00E0ED020800350608008111080002
:1009500031100800F9140800D5130800A902080096
:10096000E11408002DE9F843002837D00446002997
:100970003DD0022B47D01F46904689462F4B9847C3
:10098000EFF311864FF0400383F31188BFF36F8FAD
:10099000BFF34F8FA26BE36B9A4201D3022F44D176
:1009A00094F845506DB23A4649462046244B984744
:1009B000B5F1FF3F33D1636A002B38D004F1240036
:1009C000204B9847002834D0B8F1000F33D00120D5
:1009D000C8F8000086F31188BDE8F8834FF04003A3
:1009E00083F31188BFF36F8FBFF34F8FFEE7006C67
:1009F0000028BED04FF0400383F31188BFF36F8F00
:100A0000BFF34F8FFEE7E06B0128B4D04FF04003F7
:100A100083F31188BFF36F8FBFF34F8FFEE76B1C1B
:100A20005BB284F845300120D4E70020D2E70120F2
:100A3000D0E70120CEE70120CCE700BF91040800F9
:100A40008D050800511408002DE9F04784B001928B
:100A500080B10446B9B10E46504B9847F8B9019B96
:100A60002BB34FF0400383F31188BFF36F8FBFF3B5
:100A70004F8FFEE74FF0400383F31188BFF36F8F72
:100A8000BFF34F8FFEE7036C002BE4D04FF0400321
:100A900083F31188BFF36F8FBFF34F8FFEE70027FB
:100AA000DFF82481DFF824A1DFF8FC9029E000279B
:100AB000F6E7314620463A4B9847013DA563236946
:100AC00063B104F11000374B984738B14FF08052B2
:100AD000354B1A60BFF34F8FBFF36F8F334B98477F
:100AE000012004B0BDE8F087304B98470020F8E7BC
:100AF00002A8D0470EE020462D4B98472D4B984733
:100B00000127C047A56B002DD3D1019B002BEBD053
:100B1000002FEDD0254B9847274B9847C04794F8B6
:100B200044305BB2B3F1FF3F04BF002384F844308C
:100B300094F845305BB2B3F1FF3F04BF002384F863
:100B400045301A4B984701A902A81C4B9847C8B9D1
:100B500020461B4B98470028CDD0019904F1240072
:100B6000184B98472046124B9847124B984700283D
:100B7000C6D14FF08053C9F80030BFF34F8FBFF399
:100B80006F8FBDE720460A4B98470A4B984720468F
:100B90000B4B98470028B3D00020A2E7911508001E
:100BA0000D0608005114080004ED00E0ED020800F5
:100BB000350608008111080031100800F9140800FA
:100BC0006D050800D5130800A9020800E11408000B
:100BD00010B40A4B1B684BB10123084C54F8332066
:100BE0002AB10133082BF9D110BC70470023034A06
:100BF00042F8331002EBC3035860F5E740BF07200B
:100C000070B504460D461646114B984794F844308B
:100C10005BB2B3F1FF3F04BF002384F8443094F883
:100C200045305BB2B3F1FF3F04BF002384F8453089
:100C3000084B9847A36B1BB12046074B984770BDE4
:100C40003246294604F12400044B9847F4E700BFDC
:100C5000A9020800ED020800350608000D1408007E
:100C6000084B1B681B683BB1064B1B68DB68DB68E5
:100C70005A68054B1A6070474FF0FF32024B1A60FA
:100C8000704700BF94BD072044BE072080B5164DB5
:100C9000DFF86C80154FDFF86C902B68BBB1144EF9
:100CA000C047FB68DC68201DB047124A1368013B4F
:100CB00013602B68013B2B600F4B9847206BDFF8CC
:100CC00048A0D0472046D0472B68002BE8D10B4BDB
:100CD0001B68012BE1D94FF08053C9F80030BFF3F6
:100CE0004F8FBFF36F8FD8E704BE072078BE072071
:100CF000C901080000BE0720ED0208009CBD0720C6
:100D0000A902080004ED00E05505080070B504468E
:100D10000E461D4B1D681D4B186804301C4B984730
:100D200048B91A4B1A681B490B68D06A01228240E5
:100D300023EA02030B60B4F1FF3F13D02C44134BA2
:100D40001B685C60A54216D8134B18680F4B1968D6
:100D50000431124B9847124B1B689C423CBF104B0E
:100D60001C6070BD002EE9D0084B196804310D4895
:100D70000D4B984770BD0D4B1868044B1968043132
:100D8000064B984770BD00BF8CBE072090BD072062
:100D9000C901080014BE072094BD07209501080072
:100DA00044BE072064BE07207D01080098BD0720CF
:100DB0002DE9F04F83B083460D460193DDF834A052
:100DC00096003046604B9847002800F08D8007461B
:100DD00060205D4B98470446002800F0828007633E
:100DE0003246A5213846594B9847043E236B1E4492
:100DF00026F007062B7884F834302B7863B12B4625
:100E000004F1340205F11301587802F8010F13F8C8
:100E1000010F08B18B42F7D1002784F847700C9D71
:100E2000042D28BF0425E5622565676504F10408E3
:100E30004046DFF86C91C84704F11800C8472461A8
:100E4000C5F10505A5616462A76584F85C70019A27
:100E5000594630463E4B98472060BAF1000F01D00A
:100E6000CAF800403B4B98473B4A13680133136074
:100E70003A4B1B68002B3AD0394B1B683BB9374BB8
:100E80001B68DA6AE36A9A429CBF344B1C60354A9D
:100E9000136801331360A364E06A334A11680123C5
:100EA00083400B43136000EB800041462F4B03EB64
:100EB00080002F4B98472F4B9847294B1B68002BDE
:100EC0003BD0264B1B68DA6AE36A9A4239D24FF06C
:100ED0008052294B1A60BFF34F8FBFF36F8F0120F1
:100EE0002CE03846254B98474FF0FF3026E01B4B4F
:100EF0001C601368012BCAD11C4E3046204DA847F8
:100F000006F11400A84706F12800A84706F13C00A6
:100F1000A84706F15000A8471A4F3846A8471A4E6E
:100F20003046A8471948A8471948A8471948A8476C
:100F3000194B1F60194B1E60A9E7012003B0BDE8E3
:100F4000F08F0120FAE700BFED0408003D23080000
:100F500051020800A902080000BE072090BD07202A
:100F600060BE072010BE072014BE07209CBD0720CE
:100F70007D010800ED02080004ED00E055050800C1
:100F80006101080018BE07202CBE07204CBE0720B8
:100F900078BE072064BE072094BD072098BD0720B7
:100FA0007701080010B582B0184B0193002300931D
:100FB000822217491748184CA047012804D0B0F1E5
:100FC000FF3F1AD002B010BD144B98470128F6D14C
:100FD0004FF0400383F31188BFF36F8FBFF34F8F40
:100FE0004FF0FF320E4B1A6001220E4B1A600022A6
:100FF0000D4B1A600D4B9847E4E74FF0400383F325
:101000001188BFF36F8FBFF34F8FFEE740BE0720FD
:10101000F82408008D0C0800B10D080029170800FD
:1010200044BE072060BE07208CBE0720C103080015
:10103000024A136801331360704700BF0CBE0720DB
:10104000014B1868704700BF8CBE07202DE9F047A0
:101050003D4B1B68002B69D13C4B1D6801351D6061
:10106000C5B93B4B1B681B6843B14FF0400383F38A
:101070001188BFF36F8FBFF34F8FFEE7344A1168BB
:10108000344B186810601960334A136801331360D9
:10109000324B9847324B1B689D420CD20024314B97
:1010A0001B68DB6A03EB83039B002F4AD358022B98
:1010B00028BF01243FE00024DFF89490DFF8BC80D3
:1010C0002A4F1FE04FF0FF32254B1A60E7E7244A12
:1010D0001360E4E706F11800C047F06A3A6801239C
:1010E000834013433B6000EB800051461E4B03EBF3
:1010F00080001F4B98471B4B1B68F26ADB6A9A42C1
:1011000028BF0124D9F800301B68002BDAD0D9F8A9
:101110000030DB68DE6873689D42D8D306F1040AAC
:101120005046C047B36A002BD4D1D6E7114A1368A2
:10113000013313600024104B1B68002B0CBF2046AA
:101140000120BDE8F08700BF0CBE07208CBE072041
:1011500094BD072098BD072048BE0720610C0800F9
:1011600044BE072090BD07209CBD072014BE072069
:101170007D01080008BE072090BE0720C9010800B5
:10118000354B1B6843B94FF0400383F31188BFF31D
:101190006F8FBFF34F8FFEE72DE9F0412F4B98473C
:1011A0002D4B1A68013A1A601B68002B50D12C4B4A
:1011B0001B682BB900242B4B98472046BDE8F081D3
:1011C0000024294F294E2A4D3B6803B3FB68DC6895
:1011D00004F11800B04704F104084046B047E06A43
:1011E0002A680123834013432B6000EB80004146B3
:1011F000204B03EB8000204B9847204B1B68E26A92
:10120000DB6A9A42E0D301221D4B1A60DCE70CB185
:101210001C4B98471C4B1C686CB11C4F184E012589
:1012200001E0013C04D0B8470028FAD03560F8E767
:101230000022154B1A60124B1B685BB14FF08052B5
:10124000134B1A60BFF34F8FBFF36F8F0124B2E7C8
:101250000024B0E70024AEE70CBE0720A902080076
:1012600000BE0720ED0208004CBE0720C90108009F
:1012700014BE07209CBD07207D01080090BD0720FB
:1012800090BE0720610C080008BE07204D10080022
:1012900004ED00E038B550B1054689B94FF0400380
:1012A00083F31188BFF36F8FBFF34F8FFEE74FF0CB
:1012B000400383F31188BFF36F8FBFF34F8FFEE7B7
:1012C000194B1B6843B14FF0400383F31188BFF300
:1012D0006F8FBFF34F8FFEE70C46144B9847144BAC
:1012E00018682A681444904214D2A24216D92C607D
:1012F000A04203D20021201A0E4B98470E4B98476C
:1013000080B94FF080520D4B1A60BFF34F8FBFF37F
:101310006F8F38BDA24203D8A04201D32C60EDE705
:101320002C60E7E738BD00BF0CBE07203110080075
:101330008CBE07200D0D08008111080004ED00E0AF
:101340001F4B1B68C3B900221E4B1A601E4B1B6843
:10135000B3FA83F3DBB2C3F11F0303EB8302920002
:101360001A498A5862B94FF0400383F31188BFF3DA
:101370006F8FBFF34F8FFEE70122124B1A60704749
:1013800010B4124A9900C81802EB800044686468DF
:10139000446019440246083294420AD003EB8303A6
:1013A0000A4A02EB83035B68DA68094B1A6010BCD7
:1013B00070476068054A02EB81025060EEE700BFAB
:1013C0000CBE072090BE072014BE07209CBD07203E
:1013D00090BD072040B94FF0400383F31188BFF35D
:1013E0006F8FBFF34F8FFEE710B50C46044B1968A3
:1013F0001831044B984701212046034B984710BDF4
:1014000090BD0720950108000D0D080038B578B192
:1014100014460D460B4B196818310B4B9847002C9E
:1014200021460CBF28464FF0FF30084B984738BD87
:101430004FF0400383F31188BFF36F8FBFF34F8FDB
:10144000FEE700BF90BD07207D0108000D0D0800DC
:1014500038B5C368DC682CB304F118052846184B6E
:101460009847184B1B6833BB251D2846144B9847DB
:10147000E06A154A1168012383400B43136000EBB7
:1014800080002946114B03EB8000114B9847114B0C
:101490001B68E26ADB6A9A4283BF01200E4B186028
:1014A000002038BD4FF0400383F31188BFF36F8FE6
:1014B000BFF34F8FFEE729460848054B9847E6E7FC
:1014C000C90108000CBE072014BE07209CBD0720E0
:1014D0007D01080090BD072090BE07204CBE07206C
:1014E000034B1B680360034B1B684360704700BFDE
:1014F00048BE07208CBE0720E8B170B5054619B379
:101500000C461B4B98471B4B1A6869682368B3F15C
:10151000FF3F29D0184800682E68864201D08A42D1
:1015200024D2521A9A4218D3002323600124134B69
:101530009847204670BD4FF0400383F31188BFF3F6
:101540006F8FBFF34F8FFEE74FF0400383F3118897
:10155000BFF36F8FBFF34F8FFEE79B1A23602846C0
:10156000074B98470024E2E70024E0E70124DEE788
:10157000A90208008CBE072048BE0720ED02080023
:10158000E11408000122014B1A60704790BE072049
:10159000054B1B6833B1054B1B68002B0CBF0220A9
:1015A000002070470120704760BE07200CBE072056
:1015B00000284AD038B50446274A1268904208D01D
:1015C0004FF0400383F31188BFF36F8FBFF34F8F4A
:1015D000FEE7426D42B94FF0400383F31188BFF339
:1015E0006F8FBFF34F8FFEE7013A4265C06A216DEE
:1015F00088422CD0002A2CD1251D2846174B98470D
:1016000068B9E16A01EB81039B00154AD35833B9ED
:101610001448036801228A4023EA02030360206D14
:10162000E062C0F10503A3610E4A1168012404FAC7
:1016300000F30B43136000EB80002946084B03EBDB
:101640008000094B9847204638BD00207047002095
:1016500038BD002038BD00BF90BD0720C90108007B
:101660009CBD072014BE07207D01080008B541601D
:10167000006191420CD8D21A83699A4201D30120A9
:1016800008BD011D094B1868094B9847002008BD8B
:101690009A4201D2994206D2011D064B1868044BAA
:1016A0009847002008BD012008BD00BF98BE072054
:1016B0009501080094BE072070B5104B9847104B59
:1016C0001B6813B10F4B984770BD0F4D28460F4E46
:1016D000B0470F4C2046B0470E4B1D600E4B1C60B0
:1016E0000022102105200D4B9847054B186000285B
:1016F000E8D00B490B4B9847E4E700BFA90208006C
:10170000C8BE0720ED0208009CBE0720610108004A
:10171000B0BE072094BE072098BE07205D070800D2
:1017200000250800D10B080010B582B00D4B98477A
:101730000D4B1B686BB10D4B0193042300930023E9
:101740004FF482720A490B480B4CA04708B102B013
:1017500010BD4FF0400383F31188BFF36F8FBFF3C9
:101760004F8FFEE7B9160800C8BE0720CCBE072081
:10177000082508009D180800B10D0800D8B130B543
:1017800085B015460446144A106810B31A460091F5
:1017900001950294052917DC104B984702284FF059
:1017A00000030CBF089A1A4669460B4800680C4CA7
:1017B000A04705B030BD4FF0400383F31188BFF35D
:1017C0006F8FBFF34F8FFEE700236946054CA0479C
:1017D000EFE70020EDE700BFC8BE07209115080025
:1017E000B1070800650908002DE9F04782B080467E
:1017F000234B98470746234B1B68984219D3002375
:10180000C8F800301F4B1F60384602B0BDE8F087B3
:10181000002100910B46524620461B4CA04750B970
:101820004FF0400383F31188BFF36F8FBFF34F8FE7
:10183000FEE7164D164E2B681A68C2B1DB68D3F866
:1018400000A0DC6804F104094846B047636A2046FA
:101850009847E369012BEED1A36953449A45D7D247
:1018600063602461494628680A4B9847E3E70A4ABF
:1018700010680649086013600123C8F80030C1E70A
:1018800041100800C4BE07207D17080094BE072041
:10189000C90108009501080098BE07202DE9F0470E
:1018A00088B0704E704FDFF8E891DFF8E881336858
:1018B0001A6872B1DB681C686C4B984704A86C4BC3
:1018C00098470546049B002B52D1A04223D2002208
:1018D0000FE0664B984704A8654B98470546049B64
:1018E000002B45D1634B1B681A68B2FA82F2520989
:1018F0000024611B604B1868604B9847B84738B9A3
:101900004FF08053C9F80030BFF34F8FBFF36F8F94
:10191000594D5B4C35E0B8473368DB68D3F80CA011
:101920000AF10400C047DAF81C30012B04D0DAF8C1
:10193000243050469847EBE7DAF8181023462A4639
:10194000214450464F4DA8470028F0D00021009177
:101950000B46224650464C4CA0470028E7D14FF09A
:10196000400383F31188BFF36F8FBFF34F8FFEE700
:10197000B847CDE707990698059B9847049B002B2D
:1019800008DA002204A92868A04700288FD0049B09
:10199000002BEFDBDDF818A0DAF8143013B10AF1F0
:1019A0000400C04703A8324B9847049B092BE8D892
:1019B00001A252F823F000BFE1190800E119080064
:1019C000E119080083190800331A08005B1A08009F
:1019D000E1190800E119080083190800331A08000A
:1019E000059CDAF818102346024621445046254C3F
:1019F000A04700288DD0DAF8243050469847DAF80E
:101A00001C30012B85D1DAF81820002100910B46FB
:101A10000598024450461C4CA04700287FF479AF3B
:101A20004FF0400383F31188BFF36F8FBFF34F8FE5
:101A3000FEE70599CAF8181031B103460246014481
:101A40005046104CA04764E74FF0400383F31188E1
:101A5000BFF36F8FBFF34F8FFEE750460B4B984796
:101A600057E700BF94BE072081110800311008001D
:101A7000E917080098BE0720C8BE0720010C08001F
:101A8000490A08006D1608007D1708005505080072
:101A900004ED00E0C901080010B50E480E4B984750
:101AA0003E2100200D4B98470D4CA0470028FCD04C
:101AB0000C4B98470C4A0D4B9A620D4CA0470028DE
:101AC000FCD010200B4B98470B4B98470148024B1A
:101AD000984710BD00BD0105A50007208D1E080018
:101AE000E11E0800F11E0800013F0D2000060E4017
:101AF000011F0800291E0800CD1F080010B54FF473
:101B00000042164B5A600B20154CA0470C20A047F2
:101B10000D20A0470E20A0474FF060513B20114CF4
:101B2000A0474FF060515520A0474FF0605156201C
:101B3000A0470D496820A0470C495C20A0470C4AEB
:101B40004FF440710B480C4B98474FF000612B202D
:101B5000A0474FF000612A20A04710BD501A0E4048
:101B6000111F08001D1C0800790000280100002832
:101B700001000008000E0E40ED1C08004264B1F1A7
:101B8000805F16D00BD849B1B1F1006F05D1036F5A
:101B9000016F0B4023EA0203036742607047B1F113
:101BA000405FFBD0B1F1605FF8D0B1F1205FF4D1BC
:101BB0007047036F13430367EFE7416412F0010FAF
:101BC00014BF4166016612F00A0F14BF0162416240
:101BD00012F0020F07D112F0080F18BFC0F88410DE
:101BE000416101607047C0F88010F9E710B4019CB2
:101BF000416444B9016643B1016542B94163016181
:101C0000016010BC70474166F5E74165F5E7016387
:101C1000F5E7C06C7047806C7047000070B582B00B
:101C20000D46430903F5001303F207735C0201F04C
:101C3000F043B3F1205F31D016D8B3F1006F1BD061
:101C4000B3F1805F16D100F01F00012686403246B6
:101C50004FF080512046224B984715F0010F14BFDA
:101C600066662666012017E0B3F1405F21D0B3F12C
:101C7000605F1ED000200FE000F01F0001268640AC
:101C800032464FF000612046154B984715F0010F82
:101C900014BF66662666012002B070BD00F01F0109
:101CA00001262A4606FA01F120460E4B9847304697
:101CB000F2E705F0605200F01F01012605EA060375
:101CC0000093C5F38003B2F1605F14BF00220122CC
:101CD00006FA01F12046044CA0473046DCE700BF7D
:101CE0007D1B0800BB1B0800ED1B080070B582B00F
:101CF00005460E46144602F0F043B3F1205F27D0AC
:101D000011D8B3F1006F16D0B3F1805F11D10A463C
:101D10004FF08051194B984714F0010F14BF6E66B5
:101D20002E66012012E0B3F1405F15D0B3F1605F81
:101D300012D000200AE00A464FF000610F4B98478E
:101D400014F0010F14BF6E662E66012002B070BD44
:101D50000B4B98470120F9E704F0605204F00103AF
:101D60000093C4F38003B2F1605F14BF002201222C
:101D700031462846034CA0470120E7E77D1B0800B9
:101D8000BB1B0800ED1B08002DE9F0410446884606
:101D90000E4B9847054620460D4B9847054013D0FB
:101DA0000C4C04F1600603E0B4420DD010345DB178
:101DB00020684045F8D161682942F5D0E36898472A
:101DC000636825EA0305EFE7BDE8F081131C08000E
:101DD000171C0800D0BE072008B50B210148024B94
:101DE000984708BD000E0E40891D080008B50C215B
:101DF0000148024B984708BD00100E40891D08009D
:101E000008B50D210148024B984708BD00120E404D
:101E1000891D080008B50E210148024B984708BDEE
:101E200000140E40891D0800174A136B23F070033D
:101E300018431063936E13F0080F0AD14FF4006338
:101E400011498A6E12F0080F03D1013BF9D101202C
:101E500070470D4A136B23F0030343F0020313632F
:101E6000936E13F0080F0AD14FF4006306498A6E8F
:101E700012F0080F05D1013BF9D101207047002075
:101E800070470020704700BF00060E40C8B9114AD5
:101E9000136A090289B223F45C1323F0030343F4A9
:101EA0005C1343F001030B431362936E13F0010FB5
:101EB000FBD0084A136A43F09B7343F480331362E8
:101EC000704704490B6A044A1A40044B13430B62DF
:101ED000704700BF00060E40FCFFC8FE020037013D
:101EE000024B986E00F48030704700BF00060E4031
:101EF0004FF00052014B9A62704700BF00060E403F
:101F0000024B986E00F00200704700BF00060E40C2
:101F100000F07F00054BC3F80C01D3F80C2142F010
:101F20001022C3F80C210020704700BF00060E40AD
:101F3000FEE7000008B51C4B1C4A9A4210D01C4B0F
:101F4000194A9A420CD2013B9B1A23F00303043333
:101F50001344164951F8040B42F8040B9A42F9D184
:101F6000144B154A9A420AD2013B9B1A23F00303F1
:101F700004331344002142F8041B9342FBD10F4B5E
:101F800023F0604222F07F020D498A6003F1604332
:101F9000B3F5801F03D28B6843F000538B60094B6D
:101FA0009847094B9847FEE7000007205425080092
:101FB00064050720A4BF072064050720000008006F
:101FC00000ED00E001220800C92108003D4B1B6B19
:101FD00003F00303032B0ED8DFE803F0021C3838AC
:101FE000394B5B6913F0800F14BF4FF400424FF47C
:101FF000FA42364B1A60334B1B6B03F07003702BA5
:1020000057D0304B1A6B3149C2F302120B68D340E0
:102010000B6070472B4B1B6A13F0807F03D02C4A58
:102020002A4B1A60E7E72B4A284B1A60254B1B6A9C
:1020300003F07003102B05D0202BDCD1244A234B56
:102040001A60D8E7244A214B1A60D4E71D4B1B6A5B
:1020500013F0807F0CD01E4A1C4B1A60194B1B6B6F
:1020600003F00303022B16D01C4A184B1A60C2E778
:10207000184A164B1A60134B1B6A03F07003102B9F
:1020800005D0202BEAD1124A104B1A60E6E7124A1B
:102090000E4B1A60E2E70B4A916A926A0B48C1F351
:1020A0000A41036801FB0333D2B2B3FBF2F30360CE
:1020B000A1E7064A13680A49A1FB03135B081360F2
:1020C000704700BF00060E40101A0E403001072076
:1020D000001BB70000093D0000127A00001C4E0EE4
:1020E000ABAAAAAA034B4FF000621A601A61C3F8A8
:1020F000A020704700100E404FF00062014B1A63A1
:10210000704700BF00100E404FF00062014B5A6351
:10211000704700BF00100E4000B583B0064B9847D3
:1021200002AC44F8040D054E054DB0474FF47A71EA
:102130002046A847F9E700BF411008000921080020
:102140009512080010B582B000230193022200927C
:10215000FA2203490348044CA04702B010BD00BF57
:102160001025080019210800B10D080000B583B042
:10217000084B984702AB43F8040D4FF4FA51184648
:10218000054B9847054D044CA8474FF4FA6101A848
:10219000A047F9E74110080095120800F92008004F
:1021A00010B582B00023019301220092FA22034964
:1021B0000348044CA04702B010BD00BF2025080012
:1021C0006D210800B10D080008B5074B9847074B73
:1021D0009847074B9847074B9847074B9847074B3B
:1021E0009847012008BD00BF991A0800FD1A080091
:1021F000E520080045210800A1210800A50F0800DE
:1022000070B50F4E0F4D761BB61018BF002405D0C9
:10221000013455F8043B9847A642F9D10A4E0B4DBC
:1022200000F086F9761BB61018BF002406D00134E2
:1022300055F8043B9847A642F9D170BD70BD00BF68
:102240003C2508003C250800442508003C250800E2
:10225000844641EA000313F0030349D1403A23D3F3
:102260000B6803604B6843608B688360CB68C36016
:102270000B6903614B6943618B698361CB69C361FE
:102280000B6A03624B6A43628B6A8362CB6AC362E6
:102290000B6B03634B6B43638B6B8363CB6BC363CE
:1022A00040304031403ADBD230320BD30B68036010
:1022B0004B6843608B688360CB68C360103010311B
:1022C000103AF3D20C3205D351F8043B40F8043BEA
:1022D000043AF9D2043208D0D2071CBF11F8013BEE
:1022E00000F8013B01D30B8803806046704700BFB4
:1022F000082A13D38B07B1D010F00303AED0C3F17B
:102300000403D21ADB071CBF11F8013B00F8013BA4
:10231000A4D331F8023B20F8023B9FE7043AD9D31B
:10232000013A11F8013B00F8013BF9D20B78037038
:102330004B7843708B7883706046704770B4860723
:1023400046D0541E002A41D0CAB2034602E014F11E
:10235000FF343BD303F8012B9D07F8D1032C2ED972
:10236000CDB245EA05250F2C45EA054519D9264683
:1023700003F11002103E0F2E42F8105C42F80C5C84
:1023800042F8085C42F8045C02F11002F2D8A4F1B1
:10239000100222F00F0204F00F041032032C134439
:1023A0000DD91E462246043A032A46F8045BFAD8A1
:1023B000221F22F003020432134404F003042CB160
:1023C000C9B21C4403F8011B9C42FBD170BC70478E
:1023D00014460346C2E700BF024B13B1024800F0A7
:1023E00005B8704700000000F923080000230146EB
:1023F0001A46184600F01EB838B50A4C0A4D641B40
:10240000A4100AD004F18043013B05EB8305013C95
:1024100055F804399847002CF9D1BDE8384000F050
:1024200091B800BF5425080050250800704700BF30
:10243000704700BF2DE9F8432C4D064628689846A2
:102440000F469146FFF7F2FF294B1C68D4F848313C
:10245000002B3ED05A681F2A1CDC02F1010E76B117
:10246000012103EB8204C4F88890D3F888019140DD
:102470000843022EC3F88801C4F8088123D0023231
:10248000C3F804E0286843F82270FFF7D1FF00206A
:10249000BDE8F883174B0BB34FF4C870AFF300805F
:1024A0000346D8B10020D4F848114FF0010E58600F
:1024B00019600246C4F84831C3F88801C3F88C019A
:1024C000002EDCD0CCE7D3F88C010143C3F88C118B
:1024D000D5E704F5A673C4F84831BBE72868FFF7D1
:1024E000A7FF4FF0FF30BDE8F88300BF600507206D
:1024F0002C2508000000000049444C450000000065
:10250000546D725100000000546D722053766300C8
:102510004C65645F6F6666205461736B0000000059
:102520004C65645F6F6E205461736B003801072047
:10253000F8B500BFF8BC08BC9E467047D923080018
:1025400019010800F8B500BFF8BC08BC9E467047EA
:04255000F50008008A
:102554004FF48063204A136002F5007213601F4B2E
:102564001B6A13F0807F07D11D4A1C4B1A621A465E
:10257400936E13F0010FFBD01A4A184B1A621A46D5
:10258400936E13F4803FFBD0144A136B23F00303C0
:1025940043F001031363936E13F0080FFBD0124A48
:1025A4000E4B9A621A46936E13F0020FFBD011225F
:1025B4000A4B1A631A46936E13F0080FFBD01222CB
:1025C400064B1A631A46936E13F0080FFBD0074AA2
:1025D400074B1A60704700BF000A0E4000060E4009
:1025E4000908370009083701013F0D2000BD010526
:1025F400300107201B4B984215D91B4B984219D91F
:102604001A4B98421ED91A4B984223D9194B984217
:1026140094BF4FF480634FF4A063174A136002F52C
:102624000072136070470023134A136002F50072AE
:10263400136070474FF480730F4A136002F5007201
:10264400136070474FF400730B4A136002F5007275
:10265400136070474FF44073074A136002F5007229
:1026640013607047BFEA21017FF0FA02FF8FD003A5
:10267400FFB3C4047F4A5D05000A0E40AAAAAAAAB1
:1026840000093D00000000000000000024040720B1
:102694008C040720F4040720000000000000000060
:1026A4000000000000000000000000000000000026
:1026B4000000000000000000000000000000000016
:1026C4000000000000000000000000000000000006
:1026D40000000000000000000000000000000000F6
:1026E40000000000000000000000000000000000E6
:1026F40000000000000000000000000000000000D6
:1027040000000000000000000000000000000000C5
:1027140000000000000000000000000000000000B5
:1027240000000000000000000000000000000000A5
:1027340001000000000000000E33CDAB34126DE642
:10274400ECDE05000B0000000000000000000000AB
:102754000000000000000000000000000000000075
:102764000000000000000000000000000000000065
:102774000000000000000000000000000000000055
:102784000000000000000000000000000000000045
:042AB40080BF0720B8
:0400000380001F3525
:00000001FF
